{
	"contracts/ContactList.sol": {
		"Person": {
			"abi": [
				{
					"inputs": [
						{
							"internalType": "address",
							"name": "",
							"type": "address"
						}
					],
					"name": "Contacts",
					"outputs": [
						{
							"internalType": "string",
							"name": "name",
							"type": "string"
						},
						{
							"internalType": "uint256",
							"name": "contactNumber",
							"type": "uint256"
						}
					],
					"stateMutability": "view",
					"type": "function"
				},
				{
					"inputs": [],
					"name": "getValue",
					"outputs": [
						{
							"internalType": "uint256",
							"name": "",
							"type": "uint256"
						},
						{
							"internalType": "string",
							"name": "",
							"type": "string"
						}
					],
					"stateMutability": "view",
					"type": "function"
				},
				{
					"inputs": [
						{
							"internalType": "string",
							"name": "_name",
							"type": "string"
						},
						{
							"internalType": "uint256",
							"name": "_contactNumber",
							"type": "uint256"
						}
					],
					"name": "setValue",
					"outputs": [],
					"stateMutability": "nonpayable",
					"type": "function"
				}
			],
			"devdoc": {
				"kind": "dev",
				"methods": {},
				"version": 1
			},
			"evm": {
				"assembly": "    /* \"contracts/ContactList.sol\":570:1173  contract Person... */\n  mstore(0x40, 0x80)\n  callvalue\n  dup1\n  iszero\n  tag_1\n  jumpi\n  0x00\n  dup1\n  revert\ntag_1:\n  pop\n  dataSize(sub_0)\n  dup1\n  dataOffset(sub_0)\n  0x00\n  codecopy\n  0x00\n  return\nstop\n\nsub_0: assembly {\n        /* \"contracts/ContactList.sol\":570:1173  contract Person... */\n      mstore(0x40, 0x80)\n      callvalue\n      dup1\n      iszero\n      tag_1\n      jumpi\n      0x00\n      dup1\n      revert\n    tag_1:\n      pop\n      jumpi(tag_2, lt(calldatasize, 0x04))\n      shr(0xe0, calldataload(0x00))\n      dup1\n      0x20965255\n      eq\n      tag_3\n      jumpi\n      dup1\n      0x291456ca\n      eq\n      tag_4\n      jumpi\n      dup1\n      0x7c2da7aa\n      eq\n      tag_5\n      jumpi\n    tag_2:\n      0x00\n      dup1\n      revert\n        /* \"contracts/ContactList.sol\":884:1167  function getValue()public view returns (uint , string memory)... */\n    tag_3:\n      tag_6\n      tag_7\n      jump\t// in\n    tag_6:\n      mload(0x40)\n      tag_8\n      swap3\n      swap2\n      swap1\n      tag_9\n      jump\t// in\n    tag_8:\n      mload(0x40)\n      dup1\n      swap2\n      sub\n      swap1\n      return\n        /* \"contracts/ContactList.sol\":684:727  mapping (address=>contList) public Contacts */\n    tag_4:\n      tag_10\n      0x04\n      dup1\n      calldatasize\n      sub\n      dup2\n      add\n      swap1\n      tag_11\n      swap2\n      swap1\n      tag_12\n      jump\t// in\n    tag_11:\n      tag_13\n      jump\t// in\n    tag_10:\n      mload(0x40)\n      tag_14\n      swap3\n      swap2\n      swap1\n      tag_15\n      jump\t// in\n    tag_14:\n      mload(0x40)\n      dup1\n      swap2\n      sub\n      swap1\n      return\n        /* \"contracts/ContactList.sol\":738:877  function setValue(string memory _name,uint _contactNumber)public {... */\n    tag_5:\n      tag_16\n      0x04\n      dup1\n      calldatasize\n      sub\n      dup2\n      add\n      swap1\n      tag_17\n      swap2\n      swap1\n      tag_18\n      jump\t// in\n    tag_17:\n      tag_19\n      jump\t// in\n    tag_16:\n      stop\n        /* \"contracts/ContactList.sol\":884:1167  function getValue()public view returns (uint , string memory)... */\n    tag_7:\n        /* \"contracts/ContactList.sol\":924:928  uint */\n      0x00\n        /* \"contracts/ContactList.sol\":931:944  string memory */\n      0x60\n        /* \"contracts/ContactList.sol\":1049:1076  contList memory newcontList */\n      0x00\n        /* \"contracts/ContactList.sol\":1077:1085  Contacts */\n      dup1\n        /* \"contracts/ContactList.sol\":1077:1097  Contacts[msg.sender] */\n      0x00\n        /* \"contracts/ContactList.sol\":1086:1096  msg.sender */\n      caller\n        /* \"contracts/ContactList.sol\":1077:1097  Contacts[msg.sender] */\n      0xffffffffffffffffffffffffffffffffffffffff\n      and\n      0xffffffffffffffffffffffffffffffffffffffff\n      and\n      dup2\n      mstore\n      0x20\n      add\n      swap1\n      dup2\n      mstore\n      0x20\n      add\n      0x00\n      keccak256\n        /* \"contracts/ContactList.sol\":1049:1097  contList memory newcontList=Contacts[msg.sender] */\n      mload(0x40)\n      dup1\n      0x40\n      add\n      0x40\n      mstore\n      swap1\n      dup2\n      0x00\n      dup3\n      add\n      dup1\n      sload\n      tag_21\n      swap1\n      tag_22\n      jump\t// in\n    tag_21:\n      dup1\n      0x1f\n      add\n      0x20\n      dup1\n      swap2\n      div\n      mul\n      0x20\n      add\n      mload(0x40)\n      swap1\n      dup2\n      add\n      0x40\n      mstore\n      dup1\n      swap3\n      swap2\n      swap1\n      dup2\n      dup2\n      mstore\n      0x20\n      add\n      dup3\n      dup1\n      sload\n      tag_23\n      swap1\n      tag_22\n      jump\t// in\n    tag_23:\n      dup1\n      iszero\n      tag_24\n      jumpi\n      dup1\n      0x1f\n      lt\n      tag_25\n      jumpi\n      0x0100\n      dup1\n      dup4\n      sload\n      div\n      mul\n      dup4\n      mstore\n      swap2\n      0x20\n      add\n      swap2\n      jump(tag_24)\n    tag_25:\n      dup3\n      add\n      swap2\n      swap1\n      0x00\n      mstore\n      keccak256(0x00, 0x20)\n      swap1\n    tag_26:\n      dup2\n      sload\n      dup2\n      mstore\n      swap1\n      0x01\n      add\n      swap1\n      0x20\n      add\n      dup1\n      dup4\n      gt\n      tag_26\n      jumpi\n      dup3\n      swap1\n      sub\n      0x1f\n      and\n      dup3\n      add\n      swap2\n    tag_24:\n      pop\n      pop\n      pop\n      pop\n      pop\n      dup2\n      mstore\n      0x20\n      add\n      0x01\n      dup3\n      add\n      sload\n      dup2\n      mstore\n      pop\n      pop\n      swap1\n      pop\n        /* \"contracts/ContactList.sol\":1115:1126  newcontList */\n      dup1\n        /* \"contracts/ContactList.sol\":1115:1140  newcontList.contactNumber */\n      0x20\n      add\n      mload\n        /* \"contracts/ContactList.sol\":1141:1152  newcontList */\n      dup2\n        /* \"contracts/ContactList.sol\":1141:1157  newcontList.name */\n      0x00\n      add\n      mload\n        /* \"contracts/ContactList.sol\":1107:1158  return (newcontList.contactNumber,newcontList.name) */\n      swap3\n      pop\n      swap3\n      pop\n      pop\n        /* \"contracts/ContactList.sol\":884:1167  function getValue()public view returns (uint , string memory)... */\n      swap1\n      swap2\n      jump\t// out\n        /* \"contracts/ContactList.sol\":684:727  mapping (address=>contList) public Contacts */\n    tag_13:\n      mstore(0x20, 0x00)\n      dup1\n      0x00\n      mstore\n      keccak256(0x00, 0x40)\n      0x00\n      swap2\n      pop\n      swap1\n      pop\n      dup1\n      0x00\n      add\n      dup1\n      sload\n      tag_27\n      swap1\n      tag_22\n      jump\t// in\n    tag_27:\n      dup1\n      0x1f\n      add\n      0x20\n      dup1\n      swap2\n      div\n      mul\n      0x20\n      add\n      mload(0x40)\n      swap1\n      dup2\n      add\n      0x40\n      mstore\n      dup1\n      swap3\n      swap2\n      swap1\n      dup2\n      dup2\n      mstore\n      0x20\n      add\n      dup3\n      dup1\n      sload\n      tag_28\n      swap1\n      tag_22\n      jump\t// in\n    tag_28:\n      dup1\n      iszero\n      tag_29\n      jumpi\n      dup1\n      0x1f\n      lt\n      tag_30\n      jumpi\n      0x0100\n      dup1\n      dup4\n      sload\n      div\n      mul\n      dup4\n      mstore\n      swap2\n      0x20\n      add\n      swap2\n      jump(tag_29)\n    tag_30:\n      dup3\n      add\n      swap2\n      swap1\n      0x00\n      mstore\n      keccak256(0x00, 0x20)\n      swap1\n    tag_31:\n      dup2\n      sload\n      dup2\n      mstore\n      swap1\n      0x01\n      add\n      swap1\n      0x20\n      add\n      dup1\n      dup4\n      gt\n      tag_31\n      jumpi\n      dup3\n      swap1\n      sub\n      0x1f\n      and\n      dup3\n      add\n      swap2\n    tag_29:\n      pop\n      pop\n      pop\n      pop\n      pop\n      swap1\n      dup1\n      0x01\n      add\n      sload\n      swap1\n      pop\n      dup3\n      jump\t// out\n        /* \"contracts/ContactList.sol\":738:877  function setValue(string memory _name,uint _contactNumber)public {... */\n    tag_19:\n        /* \"contracts/ContactList.sol\":838:868  contList(_name,_contactNumber) */\n      mload(0x40)\n      dup1\n      0x40\n      add\n      0x40\n      mstore\n      dup1\n        /* \"contracts/ContactList.sol\":847:852  _name */\n      dup4\n        /* \"contracts/ContactList.sol\":838:868  contList(_name,_contactNumber) */\n      dup2\n      mstore\n      0x20\n      add\n        /* \"contracts/ContactList.sol\":853:867  _contactNumber */\n      dup3\n        /* \"contracts/ContactList.sol\":838:868  contList(_name,_contactNumber) */\n      dup2\n      mstore\n      pop\n        /* \"contracts/ContactList.sol\":817:825  Contacts */\n      0x00\n        /* \"contracts/ContactList.sol\":817:837  Contacts[msg.sender] */\n      dup1\n        /* \"contracts/ContactList.sol\":826:836  msg.sender */\n      caller\n        /* \"contracts/ContactList.sol\":817:837  Contacts[msg.sender] */\n      0xffffffffffffffffffffffffffffffffffffffff\n      and\n      0xffffffffffffffffffffffffffffffffffffffff\n      and\n      dup2\n      mstore\n      0x20\n      add\n      swap1\n      dup2\n      mstore\n      0x20\n      add\n      0x00\n      keccak256\n        /* \"contracts/ContactList.sol\":817:868  Contacts[msg.sender]=contList(_name,_contactNumber) */\n      0x00\n      dup3\n      add\n      mload\n      dup2\n      0x00\n      add\n      swap1\n      dup2\n      tag_33\n      swap2\n      swap1\n      tag_34\n      jump\t// in\n    tag_33:\n      pop\n      0x20\n      dup3\n      add\n      mload\n      dup2\n      0x01\n      add\n      sstore\n      swap1\n      pop\n      pop\n        /* \"contracts/ContactList.sol\":738:877  function setValue(string memory _name,uint _contactNumber)public {... */\n      pop\n      pop\n      jump\t// out\n        /* \"#utility.yul\":7:84   */\n    tag_35:\n        /* \"#utility.yul\":44:51   */\n      0x00\n        /* \"#utility.yul\":73:78   */\n      dup2\n        /* \"#utility.yul\":62:78   */\n      swap1\n      pop\n        /* \"#utility.yul\":7:84   */\n      swap2\n      swap1\n      pop\n      jump\t// out\n        /* \"#utility.yul\":90:208   */\n    tag_36:\n        /* \"#utility.yul\":177:201   */\n      tag_79\n        /* \"#utility.yul\":195:200   */\n      dup2\n        /* \"#utility.yul\":177:201   */\n      tag_35\n      jump\t// in\n    tag_79:\n        /* \"#utility.yul\":172:175   */\n      dup3\n        /* \"#utility.yul\":165:202   */\n      mstore\n        /* \"#utility.yul\":90:208   */\n      pop\n      pop\n      jump\t// out\n        /* \"#utility.yul\":214:313   */\n    tag_37:\n        /* \"#utility.yul\":266:272   */\n      0x00\n        /* \"#utility.yul\":300:305   */\n      dup2\n        /* \"#utility.yul\":294:306   */\n      mload\n        /* \"#utility.yul\":284:306   */\n      swap1\n      pop\n        /* \"#utility.yul\":214:313   */\n      swap2\n      swap1\n      pop\n      jump\t// out\n        /* \"#utility.yul\":319:488   */\n    tag_38:\n        /* \"#utility.yul\":403:414   */\n      0x00\n        /* \"#utility.yul\":437:443   */\n      dup3\n        /* \"#utility.yul\":432:435   */\n      dup3\n        /* \"#utility.yul\":425:444   */\n      mstore\n        /* \"#utility.yul\":477:481   */\n      0x20\n        /* \"#utility.yul\":472:475   */\n      dup3\n        /* \"#utility.yul\":468:482   */\n      add\n        /* \"#utility.yul\":453:482   */\n      swap1\n      pop\n        /* \"#utility.yul\":319:488   */\n      swap3\n      swap2\n      pop\n      pop\n      jump\t// out\n        /* \"#utility.yul\":494:740   */\n    tag_39:\n        /* \"#utility.yul\":575:576   */\n      0x00\n        /* \"#utility.yul\":585:698   */\n    tag_83:\n        /* \"#utility.yul\":599:605   */\n      dup4\n        /* \"#utility.yul\":596:597   */\n      dup2\n        /* \"#utility.yul\":593:606   */\n      lt\n        /* \"#utility.yul\":585:698   */\n      iszero\n      tag_85\n      jumpi\n        /* \"#utility.yul\":684:685   */\n      dup1\n        /* \"#utility.yul\":679:682   */\n      dup3\n        /* \"#utility.yul\":675:686   */\n      add\n        /* \"#utility.yul\":669:687   */\n      mload\n        /* \"#utility.yul\":665:666   */\n      dup2\n        /* \"#utility.yul\":660:663   */\n      dup5\n        /* \"#utility.yul\":656:667   */\n      add\n        /* \"#utility.yul\":649:688   */\n      mstore\n        /* \"#utility.yul\":621:623   */\n      0x20\n        /* \"#utility.yul\":618:619   */\n      dup2\n        /* \"#utility.yul\":614:624   */\n      add\n        /* \"#utility.yul\":609:624   */\n      swap1\n      pop\n        /* \"#utility.yul\":585:698   */\n      jump(tag_83)\n    tag_85:\n        /* \"#utility.yul\":732:733   */\n      0x00\n        /* \"#utility.yul\":723:729   */\n      dup5\n        /* \"#utility.yul\":718:721   */\n      dup5\n        /* \"#utility.yul\":714:730   */\n      add\n        /* \"#utility.yul\":707:734   */\n      mstore\n        /* \"#utility.yul\":556:740   */\n      pop\n        /* \"#utility.yul\":494:740   */\n      pop\n      pop\n      pop\n      jump\t// out\n        /* \"#utility.yul\":746:848   */\n    tag_40:\n        /* \"#utility.yul\":787:793   */\n      0x00\n        /* \"#utility.yul\":838:840   */\n      0x1f\n        /* \"#utility.yul\":834:841   */\n      not\n        /* \"#utility.yul\":829:831   */\n      0x1f\n        /* \"#utility.yul\":822:827   */\n      dup4\n        /* \"#utility.yul\":818:832   */\n      add\n        /* \"#utility.yul\":814:842   */\n      and\n        /* \"#utility.yul\":804:842   */\n      swap1\n      pop\n        /* \"#utility.yul\":746:848   */\n      swap2\n      swap1\n      pop\n      jump\t// out\n        /* \"#utility.yul\":854:1231   */\n    tag_41:\n        /* \"#utility.yul\":942:945   */\n      0x00\n        /* \"#utility.yul\":970:1009   */\n      tag_88\n        /* \"#utility.yul\":1003:1008   */\n      dup3\n        /* \"#utility.yul\":970:1009   */\n      tag_37\n      jump\t// in\n    tag_88:\n        /* \"#utility.yul\":1025:1096   */\n      tag_89\n        /* \"#utility.yul\":1089:1095   */\n      dup2\n        /* \"#utility.yul\":1084:1087   */\n      dup6\n        /* \"#utility.yul\":1025:1096   */\n      tag_38\n      jump\t// in\n    tag_89:\n        /* \"#utility.yul\":1018:1096   */\n      swap4\n      pop\n        /* \"#utility.yul\":1105:1170   */\n      tag_90\n        /* \"#utility.yul\":1163:1169   */\n      dup2\n        /* \"#utility.yul\":1158:1161   */\n      dup6\n        /* \"#utility.yul\":1151:1155   */\n      0x20\n        /* \"#utility.yul\":1144:1149   */\n      dup7\n        /* \"#utility.yul\":1140:1156   */\n      add\n        /* \"#utility.yul\":1105:1170   */\n      tag_39\n      jump\t// in\n    tag_90:\n        /* \"#utility.yul\":1195:1224   */\n      tag_91\n        /* \"#utility.yul\":1217:1223   */\n      dup2\n        /* \"#utility.yul\":1195:1224   */\n      tag_40\n      jump\t// in\n    tag_91:\n        /* \"#utility.yul\":1190:1193   */\n      dup5\n        /* \"#utility.yul\":1186:1225   */\n      add\n        /* \"#utility.yul\":1179:1225   */\n      swap2\n      pop\n        /* \"#utility.yul\":946:1231   */\n      pop\n        /* \"#utility.yul\":854:1231   */\n      swap3\n      swap2\n      pop\n      pop\n      jump\t// out\n        /* \"#utility.yul\":1237:1660   */\n    tag_9:\n        /* \"#utility.yul\":1378:1382   */\n      0x00\n        /* \"#utility.yul\":1416:1418   */\n      0x40\n        /* \"#utility.yul\":1405:1414   */\n      dup3\n        /* \"#utility.yul\":1401:1419   */\n      add\n        /* \"#utility.yul\":1393:1419   */\n      swap1\n      pop\n        /* \"#utility.yul\":1429:1500   */\n      tag_93\n        /* \"#utility.yul\":1497:1498   */\n      0x00\n        /* \"#utility.yul\":1486:1495   */\n      dup4\n        /* \"#utility.yul\":1482:1499   */\n      add\n        /* \"#utility.yul\":1473:1479   */\n      dup6\n        /* \"#utility.yul\":1429:1500   */\n      tag_36\n      jump\t// in\n    tag_93:\n        /* \"#utility.yul\":1547:1556   */\n      dup2\n        /* \"#utility.yul\":1541:1545   */\n      dup2\n        /* \"#utility.yul\":1537:1557   */\n      sub\n        /* \"#utility.yul\":1532:1534   */\n      0x20\n        /* \"#utility.yul\":1521:1530   */\n      dup4\n        /* \"#utility.yul\":1517:1535   */\n      add\n        /* \"#utility.yul\":1510:1558   */\n      mstore\n        /* \"#utility.yul\":1575:1653   */\n      tag_94\n        /* \"#utility.yul\":1648:1652   */\n      dup2\n        /* \"#utility.yul\":1639:1645   */\n      dup5\n        /* \"#utility.yul\":1575:1653   */\n      tag_41\n      jump\t// in\n    tag_94:\n        /* \"#utility.yul\":1567:1653   */\n      swap1\n      pop\n        /* \"#utility.yul\":1237:1660   */\n      swap4\n      swap3\n      pop\n      pop\n      pop\n      jump\t// out\n        /* \"#utility.yul\":1666:1741   */\n    tag_42:\n        /* \"#utility.yul\":1699:1705   */\n      0x00\n        /* \"#utility.yul\":1732:1734   */\n      0x40\n        /* \"#utility.yul\":1726:1735   */\n      mload\n        /* \"#utility.yul\":1716:1735   */\n      swap1\n      pop\n        /* \"#utility.yul\":1666:1741   */\n      swap1\n      jump\t// out\n        /* \"#utility.yul\":1747:1864   */\n    tag_43:\n        /* \"#utility.yul\":1856:1857   */\n      0x00\n        /* \"#utility.yul\":1853:1854   */\n      dup1\n        /* \"#utility.yul\":1846:1858   */\n      revert\n        /* \"#utility.yul\":1870:1987   */\n    tag_44:\n        /* \"#utility.yul\":1979:1980   */\n      0x00\n        /* \"#utility.yul\":1976:1977   */\n      dup1\n        /* \"#utility.yul\":1969:1981   */\n      revert\n        /* \"#utility.yul\":1993:2119   */\n    tag_45:\n        /* \"#utility.yul\":2030:2037   */\n      0x00\n        /* \"#utility.yul\":2070:2112   */\n      0xffffffffffffffffffffffffffffffffffffffff\n        /* \"#utility.yul\":2063:2068   */\n      dup3\n        /* \"#utility.yul\":2059:2113   */\n      and\n        /* \"#utility.yul\":2048:2113   */\n      swap1\n      pop\n        /* \"#utility.yul\":1993:2119   */\n      swap2\n      swap1\n      pop\n      jump\t// out\n        /* \"#utility.yul\":2125:2221   */\n    tag_46:\n        /* \"#utility.yul\":2162:2169   */\n      0x00\n        /* \"#utility.yul\":2191:2215   */\n      tag_100\n        /* \"#utility.yul\":2209:2214   */\n      dup3\n        /* \"#utility.yul\":2191:2215   */\n      tag_45\n      jump\t// in\n    tag_100:\n        /* \"#utility.yul\":2180:2215   */\n      swap1\n      pop\n        /* \"#utility.yul\":2125:2221   */\n      swap2\n      swap1\n      pop\n      jump\t// out\n        /* \"#utility.yul\":2227:2349   */\n    tag_47:\n        /* \"#utility.yul\":2300:2324   */\n      tag_102\n        /* \"#utility.yul\":2318:2323   */\n      dup2\n        /* \"#utility.yul\":2300:2324   */\n      tag_46\n      jump\t// in\n    tag_102:\n        /* \"#utility.yul\":2293:2298   */\n      dup2\n        /* \"#utility.yul\":2290:2325   */\n      eq\n        /* \"#utility.yul\":2280:2343   */\n      tag_103\n      jumpi\n        /* \"#utility.yul\":2339:2340   */\n      0x00\n        /* \"#utility.yul\":2336:2337   */\n      dup1\n        /* \"#utility.yul\":2329:2341   */\n      revert\n        /* \"#utility.yul\":2280:2343   */\n    tag_103:\n        /* \"#utility.yul\":2227:2349   */\n      pop\n      jump\t// out\n        /* \"#utility.yul\":2355:2494   */\n    tag_48:\n        /* \"#utility.yul\":2401:2406   */\n      0x00\n        /* \"#utility.yul\":2439:2445   */\n      dup2\n        /* \"#utility.yul\":2426:2446   */\n      calldataload\n        /* \"#utility.yul\":2417:2446   */\n      swap1\n      pop\n        /* \"#utility.yul\":2455:2488   */\n      tag_105\n        /* \"#utility.yul\":2482:2487   */\n      dup2\n        /* \"#utility.yul\":2455:2488   */\n      tag_47\n      jump\t// in\n    tag_105:\n        /* \"#utility.yul\":2355:2494   */\n      swap3\n      swap2\n      pop\n      pop\n      jump\t// out\n        /* \"#utility.yul\":2500:2829   */\n    tag_12:\n        /* \"#utility.yul\":2559:2565   */\n      0x00\n        /* \"#utility.yul\":2608:2610   */\n      0x20\n        /* \"#utility.yul\":2596:2605   */\n      dup3\n        /* \"#utility.yul\":2587:2594   */\n      dup5\n        /* \"#utility.yul\":2583:2606   */\n      sub\n        /* \"#utility.yul\":2579:2611   */\n      slt\n        /* \"#utility.yul\":2576:2695   */\n      iszero\n      tag_107\n      jumpi\n        /* \"#utility.yul\":2614:2693   */\n      tag_108\n      tag_43\n      jump\t// in\n    tag_108:\n        /* \"#utility.yul\":2576:2695   */\n    tag_107:\n        /* \"#utility.yul\":2734:2735   */\n      0x00\n        /* \"#utility.yul\":2759:2812   */\n      tag_109\n        /* \"#utility.yul\":2804:2811   */\n      dup5\n        /* \"#utility.yul\":2795:2801   */\n      dup3\n        /* \"#utility.yul\":2784:2793   */\n      dup6\n        /* \"#utility.yul\":2780:2802   */\n      add\n        /* \"#utility.yul\":2759:2812   */\n      tag_48\n      jump\t// in\n    tag_109:\n        /* \"#utility.yul\":2749:2812   */\n      swap2\n      pop\n        /* \"#utility.yul\":2705:2822   */\n      pop\n        /* \"#utility.yul\":2500:2829   */\n      swap3\n      swap2\n      pop\n      pop\n      jump\t// out\n        /* \"#utility.yul\":2835:3258   */\n    tag_15:\n        /* \"#utility.yul\":2976:2980   */\n      0x00\n        /* \"#utility.yul\":3014:3016   */\n      0x40\n        /* \"#utility.yul\":3003:3012   */\n      dup3\n        /* \"#utility.yul\":2999:3017   */\n      add\n        /* \"#utility.yul\":2991:3017   */\n      swap1\n      pop\n        /* \"#utility.yul\":3063:3072   */\n      dup2\n        /* \"#utility.yul\":3057:3061   */\n      dup2\n        /* \"#utility.yul\":3053:3073   */\n      sub\n        /* \"#utility.yul\":3049:3050   */\n      0x00\n        /* \"#utility.yul\":3038:3047   */\n      dup4\n        /* \"#utility.yul\":3034:3051   */\n      add\n        /* \"#utility.yul\":3027:3074   */\n      mstore\n        /* \"#utility.yul\":3091:3169   */\n      tag_111\n        /* \"#utility.yul\":3164:3168   */\n      dup2\n        /* \"#utility.yul\":3155:3161   */\n      dup6\n        /* \"#utility.yul\":3091:3169   */\n      tag_41\n      jump\t// in\n    tag_111:\n        /* \"#utility.yul\":3083:3169   */\n      swap1\n      pop\n        /* \"#utility.yul\":3179:3251   */\n      tag_112\n        /* \"#utility.yul\":3247:3249   */\n      0x20\n        /* \"#utility.yul\":3236:3245   */\n      dup4\n        /* \"#utility.yul\":3232:3250   */\n      add\n        /* \"#utility.yul\":3223:3229   */\n      dup5\n        /* \"#utility.yul\":3179:3251   */\n      tag_36\n      jump\t// in\n    tag_112:\n        /* \"#utility.yul\":2835:3258   */\n      swap4\n      swap3\n      pop\n      pop\n      pop\n      jump\t// out\n        /* \"#utility.yul\":3264:3381   */\n    tag_49:\n        /* \"#utility.yul\":3373:3374   */\n      0x00\n        /* \"#utility.yul\":3370:3371   */\n      dup1\n        /* \"#utility.yul\":3363:3375   */\n      revert\n        /* \"#utility.yul\":3387:3504   */\n    tag_50:\n        /* \"#utility.yul\":3496:3497   */\n      0x00\n        /* \"#utility.yul\":3493:3494   */\n      dup1\n        /* \"#utility.yul\":3486:3498   */\n      revert\n        /* \"#utility.yul\":3510:3690   */\n    tag_51:\n        /* \"#utility.yul\":3558:3635   */\n      0x4e487b7100000000000000000000000000000000000000000000000000000000\n        /* \"#utility.yul\":3555:3556   */\n      0x00\n        /* \"#utility.yul\":3548:3636   */\n      mstore\n        /* \"#utility.yul\":3655:3659   */\n      0x41\n        /* \"#utility.yul\":3652:3653   */\n      0x04\n        /* \"#utility.yul\":3645:3660   */\n      mstore\n        /* \"#utility.yul\":3679:3683   */\n      0x24\n        /* \"#utility.yul\":3676:3677   */\n      0x00\n        /* \"#utility.yul\":3669:3684   */\n      revert\n        /* \"#utility.yul\":3696:3977   */\n    tag_52:\n        /* \"#utility.yul\":3779:3806   */\n      tag_117\n        /* \"#utility.yul\":3801:3805   */\n      dup3\n        /* \"#utility.yul\":3779:3806   */\n      tag_40\n      jump\t// in\n    tag_117:\n        /* \"#utility.yul\":3771:3777   */\n      dup2\n        /* \"#utility.yul\":3767:3807   */\n      add\n        /* \"#utility.yul\":3909:3915   */\n      dup2\n        /* \"#utility.yul\":3897:3907   */\n      dup2\n        /* \"#utility.yul\":3894:3916   */\n      lt\n        /* \"#utility.yul\":3873:3891   */\n      0xffffffffffffffff\n        /* \"#utility.yul\":3861:3871   */\n      dup3\n        /* \"#utility.yul\":3858:3892   */\n      gt\n        /* \"#utility.yul\":3855:3917   */\n      or\n        /* \"#utility.yul\":3852:3940   */\n      iszero\n      tag_118\n      jumpi\n        /* \"#utility.yul\":3920:3938   */\n      tag_119\n      tag_51\n      jump\t// in\n    tag_119:\n        /* \"#utility.yul\":3852:3940   */\n    tag_118:\n        /* \"#utility.yul\":3960:3970   */\n      dup1\n        /* \"#utility.yul\":3956:3958   */\n      0x40\n        /* \"#utility.yul\":3949:3971   */\n      mstore\n        /* \"#utility.yul\":3739:3977   */\n      pop\n        /* \"#utility.yul\":3696:3977   */\n      pop\n      pop\n      jump\t// out\n        /* \"#utility.yul\":3983:4112   */\n    tag_53:\n        /* \"#utility.yul\":4017:4023   */\n      0x00\n        /* \"#utility.yul\":4044:4064   */\n      tag_121\n      tag_42\n      jump\t// in\n    tag_121:\n        /* \"#utility.yul\":4034:4064   */\n      swap1\n      pop\n        /* \"#utility.yul\":4073:4106   */\n      tag_122\n        /* \"#utility.yul\":4101:4105   */\n      dup3\n        /* \"#utility.yul\":4093:4099   */\n      dup3\n        /* \"#utility.yul\":4073:4106   */\n      tag_52\n      jump\t// in\n    tag_122:\n        /* \"#utility.yul\":3983:4112   */\n      swap2\n      swap1\n      pop\n      jump\t// out\n        /* \"#utility.yul\":4118:4426   */\n    tag_54:\n        /* \"#utility.yul\":4180:4184   */\n      0x00\n        /* \"#utility.yul\":4270:4288   */\n      0xffffffffffffffff\n        /* \"#utility.yul\":4262:4268   */\n      dup3\n        /* \"#utility.yul\":4259:4289   */\n      gt\n        /* \"#utility.yul\":4256:4312   */\n      iszero\n      tag_124\n      jumpi\n        /* \"#utility.yul\":4292:4310   */\n      tag_125\n      tag_51\n      jump\t// in\n    tag_125:\n        /* \"#utility.yul\":4256:4312   */\n    tag_124:\n        /* \"#utility.yul\":4330:4359   */\n      tag_126\n        /* \"#utility.yul\":4352:4358   */\n      dup3\n        /* \"#utility.yul\":4330:4359   */\n      tag_40\n      jump\t// in\n    tag_126:\n        /* \"#utility.yul\":4322:4359   */\n      swap1\n      pop\n        /* \"#utility.yul\":4414:4418   */\n      0x20\n        /* \"#utility.yul\":4408:4412   */\n      dup2\n        /* \"#utility.yul\":4404:4419   */\n      add\n        /* \"#utility.yul\":4396:4419   */\n      swap1\n      pop\n        /* \"#utility.yul\":4118:4426   */\n      swap2\n      swap1\n      pop\n      jump\t// out\n        /* \"#utility.yul\":4432:4578   */\n    tag_55:\n        /* \"#utility.yul\":4529:4535   */\n      dup3\n        /* \"#utility.yul\":4524:4527   */\n      dup2\n        /* \"#utility.yul\":4519:4522   */\n      dup4\n        /* \"#utility.yul\":4506:4536   */\n      calldatacopy\n        /* \"#utility.yul\":4570:4571   */\n      0x00\n        /* \"#utility.yul\":4561:4567   */\n      dup4\n        /* \"#utility.yul\":4556:4559   */\n      dup4\n        /* \"#utility.yul\":4552:4568   */\n      add\n        /* \"#utility.yul\":4545:4572   */\n      mstore\n        /* \"#utility.yul\":4432:4578   */\n      pop\n      pop\n      pop\n      jump\t// out\n        /* \"#utility.yul\":4584:5009   */\n    tag_56:\n        /* \"#utility.yul\":4662:4667   */\n      0x00\n        /* \"#utility.yul\":4687:4753   */\n      tag_129\n        /* \"#utility.yul\":4703:4752   */\n      tag_130\n        /* \"#utility.yul\":4745:4751   */\n      dup5\n        /* \"#utility.yul\":4703:4752   */\n      tag_54\n      jump\t// in\n    tag_130:\n        /* \"#utility.yul\":4687:4753   */\n      tag_53\n      jump\t// in\n    tag_129:\n        /* \"#utility.yul\":4678:4753   */\n      swap1\n      pop\n        /* \"#utility.yul\":4776:4782   */\n      dup3\n        /* \"#utility.yul\":4769:4774   */\n      dup2\n        /* \"#utility.yul\":4762:4783   */\n      mstore\n        /* \"#utility.yul\":4814:4818   */\n      0x20\n        /* \"#utility.yul\":4807:4812   */\n      dup2\n        /* \"#utility.yul\":4803:4819   */\n      add\n        /* \"#utility.yul\":4852:4855   */\n      dup5\n        /* \"#utility.yul\":4843:4849   */\n      dup5\n        /* \"#utility.yul\":4838:4841   */\n      dup5\n        /* \"#utility.yul\":4834:4850   */\n      add\n        /* \"#utility.yul\":4831:4856   */\n      gt\n        /* \"#utility.yul\":4828:4940   */\n      iszero\n      tag_131\n      jumpi\n        /* \"#utility.yul\":4859:4938   */\n      tag_132\n      tag_50\n      jump\t// in\n    tag_132:\n        /* \"#utility.yul\":4828:4940   */\n    tag_131:\n        /* \"#utility.yul\":4949:5003   */\n      tag_133\n        /* \"#utility.yul\":4996:5002   */\n      dup5\n        /* \"#utility.yul\":4991:4994   */\n      dup3\n        /* \"#utility.yul\":4986:4989   */\n      dup6\n        /* \"#utility.yul\":4949:5003   */\n      tag_55\n      jump\t// in\n    tag_133:\n        /* \"#utility.yul\":4668:5009   */\n      pop\n        /* \"#utility.yul\":4584:5009   */\n      swap4\n      swap3\n      pop\n      pop\n      pop\n      jump\t// out\n        /* \"#utility.yul\":5029:5369   */\n    tag_57:\n        /* \"#utility.yul\":5085:5090   */\n      0x00\n        /* \"#utility.yul\":5134:5137   */\n      dup3\n        /* \"#utility.yul\":5127:5131   */\n      0x1f\n        /* \"#utility.yul\":5119:5125   */\n      dup4\n        /* \"#utility.yul\":5115:5132   */\n      add\n        /* \"#utility.yul\":5111:5138   */\n      slt\n        /* \"#utility.yul\":5101:5223   */\n      tag_135\n      jumpi\n        /* \"#utility.yul\":5142:5221   */\n      tag_136\n      tag_49\n      jump\t// in\n    tag_136:\n        /* \"#utility.yul\":5101:5223   */\n    tag_135:\n        /* \"#utility.yul\":5259:5265   */\n      dup2\n        /* \"#utility.yul\":5246:5266   */\n      calldataload\n        /* \"#utility.yul\":5284:5363   */\n      tag_137\n        /* \"#utility.yul\":5359:5362   */\n      dup5\n        /* \"#utility.yul\":5351:5357   */\n      dup3\n        /* \"#utility.yul\":5344:5348   */\n      0x20\n        /* \"#utility.yul\":5336:5342   */\n      dup7\n        /* \"#utility.yul\":5332:5349   */\n      add\n        /* \"#utility.yul\":5284:5363   */\n      tag_56\n      jump\t// in\n    tag_137:\n        /* \"#utility.yul\":5275:5363   */\n      swap2\n      pop\n        /* \"#utility.yul\":5091:5369   */\n      pop\n        /* \"#utility.yul\":5029:5369   */\n      swap3\n      swap2\n      pop\n      pop\n      jump\t// out\n        /* \"#utility.yul\":5375:5497   */\n    tag_58:\n        /* \"#utility.yul\":5448:5472   */\n      tag_139\n        /* \"#utility.yul\":5466:5471   */\n      dup2\n        /* \"#utility.yul\":5448:5472   */\n      tag_35\n      jump\t// in\n    tag_139:\n        /* \"#utility.yul\":5441:5446   */\n      dup2\n        /* \"#utility.yul\":5438:5473   */\n      eq\n        /* \"#utility.yul\":5428:5491   */\n      tag_140\n      jumpi\n        /* \"#utility.yul\":5487:5488   */\n      0x00\n        /* \"#utility.yul\":5484:5485   */\n      dup1\n        /* \"#utility.yul\":5477:5489   */\n      revert\n        /* \"#utility.yul\":5428:5491   */\n    tag_140:\n        /* \"#utility.yul\":5375:5497   */\n      pop\n      jump\t// out\n        /* \"#utility.yul\":5503:5642   */\n    tag_59:\n        /* \"#utility.yul\":5549:5554   */\n      0x00\n        /* \"#utility.yul\":5587:5593   */\n      dup2\n        /* \"#utility.yul\":5574:5594   */\n      calldataload\n        /* \"#utility.yul\":5565:5594   */\n      swap1\n      pop\n        /* \"#utility.yul\":5603:5636   */\n      tag_142\n        /* \"#utility.yul\":5630:5635   */\n      dup2\n        /* \"#utility.yul\":5603:5636   */\n      tag_58\n      jump\t// in\n    tag_142:\n        /* \"#utility.yul\":5503:5642   */\n      swap3\n      swap2\n      pop\n      pop\n      jump\t// out\n        /* \"#utility.yul\":5648:6302   */\n    tag_18:\n        /* \"#utility.yul\":5726:5732   */\n      0x00\n        /* \"#utility.yul\":5734:5740   */\n      dup1\n        /* \"#utility.yul\":5783:5785   */\n      0x40\n        /* \"#utility.yul\":5771:5780   */\n      dup4\n        /* \"#utility.yul\":5762:5769   */\n      dup6\n        /* \"#utility.yul\":5758:5781   */\n      sub\n        /* \"#utility.yul\":5754:5786   */\n      slt\n        /* \"#utility.yul\":5751:5870   */\n      iszero\n      tag_144\n      jumpi\n        /* \"#utility.yul\":5789:5868   */\n      tag_145\n      tag_43\n      jump\t// in\n    tag_145:\n        /* \"#utility.yul\":5751:5870   */\n    tag_144:\n        /* \"#utility.yul\":5937:5938   */\n      0x00\n        /* \"#utility.yul\":5926:5935   */\n      dup4\n        /* \"#utility.yul\":5922:5939   */\n      add\n        /* \"#utility.yul\":5909:5940   */\n      calldataload\n        /* \"#utility.yul\":5967:5985   */\n      0xffffffffffffffff\n        /* \"#utility.yul\":5959:5965   */\n      dup2\n        /* \"#utility.yul\":5956:5986   */\n      gt\n        /* \"#utility.yul\":5953:6070   */\n      iszero\n      tag_146\n      jumpi\n        /* \"#utility.yul\":5989:6068   */\n      tag_147\n      tag_44\n      jump\t// in\n    tag_147:\n        /* \"#utility.yul\":5953:6070   */\n    tag_146:\n        /* \"#utility.yul\":6094:6157   */\n      tag_148\n        /* \"#utility.yul\":6149:6156   */\n      dup6\n        /* \"#utility.yul\":6140:6146   */\n      dup3\n        /* \"#utility.yul\":6129:6138   */\n      dup7\n        /* \"#utility.yul\":6125:6147   */\n      add\n        /* \"#utility.yul\":6094:6157   */\n      tag_57\n      jump\t// in\n    tag_148:\n        /* \"#utility.yul\":6084:6157   */\n      swap3\n      pop\n        /* \"#utility.yul\":5880:6167   */\n      pop\n        /* \"#utility.yul\":6206:6208   */\n      0x20\n        /* \"#utility.yul\":6232:6285   */\n      tag_149\n        /* \"#utility.yul\":6277:6284   */\n      dup6\n        /* \"#utility.yul\":6268:6274   */\n      dup3\n        /* \"#utility.yul\":6257:6266   */\n      dup7\n        /* \"#utility.yul\":6253:6275   */\n      add\n        /* \"#utility.yul\":6232:6285   */\n      tag_59\n      jump\t// in\n    tag_149:\n        /* \"#utility.yul\":6222:6285   */\n      swap2\n      pop\n        /* \"#utility.yul\":6177:6295   */\n      pop\n        /* \"#utility.yul\":5648:6302   */\n      swap3\n      pop\n      swap3\n      swap1\n      pop\n      jump\t// out\n        /* \"#utility.yul\":6308:6488   */\n    tag_60:\n        /* \"#utility.yul\":6356:6433   */\n      0x4e487b7100000000000000000000000000000000000000000000000000000000\n        /* \"#utility.yul\":6353:6354   */\n      0x00\n        /* \"#utility.yul\":6346:6434   */\n      mstore\n        /* \"#utility.yul\":6453:6457   */\n      0x22\n        /* \"#utility.yul\":6450:6451   */\n      0x04\n        /* \"#utility.yul\":6443:6458   */\n      mstore\n        /* \"#utility.yul\":6477:6481   */\n      0x24\n        /* \"#utility.yul\":6474:6475   */\n      0x00\n        /* \"#utility.yul\":6467:6482   */\n      revert\n        /* \"#utility.yul\":6494:6814   */\n    tag_22:\n        /* \"#utility.yul\":6538:6544   */\n      0x00\n        /* \"#utility.yul\":6575:6576   */\n      0x02\n        /* \"#utility.yul\":6569:6573   */\n      dup3\n        /* \"#utility.yul\":6565:6577   */\n      div\n        /* \"#utility.yul\":6555:6577   */\n      swap1\n      pop\n        /* \"#utility.yul\":6622:6623   */\n      0x01\n        /* \"#utility.yul\":6616:6620   */\n      dup3\n        /* \"#utility.yul\":6612:6624   */\n      and\n        /* \"#utility.yul\":6643:6661   */\n      dup1\n        /* \"#utility.yul\":6633:6714   */\n      tag_152\n      jumpi\n        /* \"#utility.yul\":6699:6703   */\n      0x7f\n        /* \"#utility.yul\":6691:6697   */\n      dup3\n        /* \"#utility.yul\":6687:6704   */\n      and\n        /* \"#utility.yul\":6677:6704   */\n      swap2\n      pop\n        /* \"#utility.yul\":6633:6714   */\n    tag_152:\n        /* \"#utility.yul\":6761:6763   */\n      0x20\n        /* \"#utility.yul\":6753:6759   */\n      dup3\n        /* \"#utility.yul\":6750:6764   */\n      lt\n        /* \"#utility.yul\":6730:6748   */\n      dup2\n        /* \"#utility.yul\":6727:6765   */\n      sub\n        /* \"#utility.yul\":6724:6808   */\n      tag_153\n      jumpi\n        /* \"#utility.yul\":6780:6798   */\n      tag_154\n      tag_60\n      jump\t// in\n    tag_154:\n        /* \"#utility.yul\":6724:6808   */\n    tag_153:\n        /* \"#utility.yul\":6545:6814   */\n      pop\n        /* \"#utility.yul\":6494:6814   */\n      swap2\n      swap1\n      pop\n      jump\t// out\n        /* \"#utility.yul\":6820:6961   */\n    tag_61:\n        /* \"#utility.yul\":6869:6873   */\n      0x00\n        /* \"#utility.yul\":6892:6895   */\n      dup2\n        /* \"#utility.yul\":6884:6895   */\n      swap1\n      pop\n        /* \"#utility.yul\":6915:6918   */\n      dup2\n        /* \"#utility.yul\":6912:6913   */\n      0x00\n        /* \"#utility.yul\":6905:6919   */\n      mstore\n        /* \"#utility.yul\":6949:6953   */\n      0x20\n        /* \"#utility.yul\":6946:6947   */\n      0x00\n        /* \"#utility.yul\":6936:6954   */\n      keccak256\n        /* \"#utility.yul\":6928:6954   */\n      swap1\n      pop\n        /* \"#utility.yul\":6820:6961   */\n      swap2\n      swap1\n      pop\n      jump\t// out\n        /* \"#utility.yul\":6967:7060   */\n    tag_62:\n        /* \"#utility.yul\":7004:7010   */\n      0x00\n        /* \"#utility.yul\":7051:7053   */\n      0x20\n        /* \"#utility.yul\":7046:7048   */\n      0x1f\n        /* \"#utility.yul\":7039:7044   */\n      dup4\n        /* \"#utility.yul\":7035:7049   */\n      add\n        /* \"#utility.yul\":7031:7054   */\n      div\n        /* \"#utility.yul\":7021:7054   */\n      swap1\n      pop\n        /* \"#utility.yul\":6967:7060   */\n      swap2\n      swap1\n      pop\n      jump\t// out\n        /* \"#utility.yul\":7066:7173   */\n    tag_63:\n        /* \"#utility.yul\":7110:7118   */\n      0x00\n        /* \"#utility.yul\":7160:7165   */\n      dup3\n        /* \"#utility.yul\":7154:7158   */\n      dup3\n        /* \"#utility.yul\":7150:7166   */\n      shl\n        /* \"#utility.yul\":7129:7166   */\n      swap1\n      pop\n        /* \"#utility.yul\":7066:7173   */\n      swap3\n      swap2\n      pop\n      pop\n      jump\t// out\n        /* \"#utility.yul\":7179:7572   */\n    tag_64:\n        /* \"#utility.yul\":7248:7254   */\n      0x00\n        /* \"#utility.yul\":7298:7299   */\n      0x08\n        /* \"#utility.yul\":7286:7296   */\n      dup4\n        /* \"#utility.yul\":7282:7300   */\n      mul\n        /* \"#utility.yul\":7321:7418   */\n      tag_159\n        /* \"#utility.yul\":7351:7417   */\n      0xffffffffffffffffffffffffffffffffffffffffffffffffffffffffffffffff\n        /* \"#utility.yul\":7340:7349   */\n      dup3\n        /* \"#utility.yul\":7321:7418   */\n      tag_63\n      jump\t// in\n    tag_159:\n        /* \"#utility.yul\":7439:7478   */\n      tag_160\n        /* \"#utility.yul\":7469:7477   */\n      dup7\n        /* \"#utility.yul\":7458:7467   */\n      dup4\n        /* \"#utility.yul\":7439:7478   */\n      tag_63\n      jump\t// in\n    tag_160:\n        /* \"#utility.yul\":7427:7478   */\n      swap6\n      pop\n        /* \"#utility.yul\":7511:7515   */\n      dup1\n        /* \"#utility.yul\":7507:7516   */\n      not\n        /* \"#utility.yul\":7500:7505   */\n      dup5\n        /* \"#utility.yul\":7496:7517   */\n      and\n        /* \"#utility.yul\":7487:7517   */\n      swap4\n      pop\n        /* \"#utility.yul\":7560:7564   */\n      dup1\n        /* \"#utility.yul\":7550:7558   */\n      dup7\n        /* \"#utility.yul\":7546:7565   */\n      and\n        /* \"#utility.yul\":7539:7544   */\n      dup5\n        /* \"#utility.yul\":7536:7566   */\n      or\n        /* \"#utility.yul\":7526:7566   */\n      swap3\n      pop\n        /* \"#utility.yul\":7255:7572   */\n      pop\n      pop\n        /* \"#utility.yul\":7179:7572   */\n      swap4\n      swap3\n      pop\n      pop\n      pop\n      jump\t// out\n        /* \"#utility.yul\":7578:7638   */\n    tag_65:\n        /* \"#utility.yul\":7606:7609   */\n      0x00\n        /* \"#utility.yul\":7627:7632   */\n      dup2\n        /* \"#utility.yul\":7620:7632   */\n      swap1\n      pop\n        /* \"#utility.yul\":7578:7638   */\n      swap2\n      swap1\n      pop\n      jump\t// out\n        /* \"#utility.yul\":7644:7786   */\n    tag_66:\n        /* \"#utility.yul\":7694:7703   */\n      0x00\n        /* \"#utility.yul\":7727:7780   */\n      tag_163\n        /* \"#utility.yul\":7745:7779   */\n      tag_164\n        /* \"#utility.yul\":7754:7778   */\n      tag_165\n        /* \"#utility.yul\":7772:7777   */\n      dup5\n        /* \"#utility.yul\":7754:7778   */\n      tag_35\n      jump\t// in\n    tag_165:\n        /* \"#utility.yul\":7745:7779   */\n      tag_65\n      jump\t// in\n    tag_164:\n        /* \"#utility.yul\":7727:7780   */\n      tag_35\n      jump\t// in\n    tag_163:\n        /* \"#utility.yul\":7714:7780   */\n      swap1\n      pop\n        /* \"#utility.yul\":7644:7786   */\n      swap2\n      swap1\n      pop\n      jump\t// out\n        /* \"#utility.yul\":7792:7867   */\n    tag_67:\n        /* \"#utility.yul\":7835:7838   */\n      0x00\n        /* \"#utility.yul\":7856:7861   */\n      dup2\n        /* \"#utility.yul\":7849:7861   */\n      swap1\n      pop\n        /* \"#utility.yul\":7792:7867   */\n      swap2\n      swap1\n      pop\n      jump\t// out\n        /* \"#utility.yul\":7873:8142   */\n    tag_68:\n        /* \"#utility.yul\":7983:8022   */\n      tag_168\n        /* \"#utility.yul\":8014:8021   */\n      dup4\n        /* \"#utility.yul\":7983:8022   */\n      tag_66\n      jump\t// in\n    tag_168:\n        /* \"#utility.yul\":8044:8135   */\n      tag_169\n        /* \"#utility.yul\":8093:8134   */\n      tag_170\n        /* \"#utility.yul\":8117:8133   */\n      dup3\n        /* \"#utility.yul\":8093:8134   */\n      tag_67\n      jump\t// in\n    tag_170:\n        /* \"#utility.yul\":8085:8091   */\n      dup5\n        /* \"#utility.yul\":8078:8082   */\n      dup5\n        /* \"#utility.yul\":8072:8083   */\n      sload\n        /* \"#utility.yul\":8044:8135   */\n      tag_64\n      jump\t// in\n    tag_169:\n        /* \"#utility.yul\":8038:8042   */\n      dup3\n        /* \"#utility.yul\":8031:8136   */\n      sstore\n        /* \"#utility.yul\":7949:8142   */\n      pop\n        /* \"#utility.yul\":7873:8142   */\n      pop\n      pop\n      pop\n      jump\t// out\n        /* \"#utility.yul\":8148:8221   */\n    tag_69:\n        /* \"#utility.yul\":8193:8196   */\n      0x00\n        /* \"#utility.yul\":8148:8221   */\n      swap1\n      jump\t// out\n        /* \"#utility.yul\":8227:8416   */\n    tag_70:\n        /* \"#utility.yul\":8304:8336   */\n      tag_173\n      tag_69\n      jump\t// in\n    tag_173:\n        /* \"#utility.yul\":8345:8410   */\n      tag_174\n        /* \"#utility.yul\":8403:8409   */\n      dup2\n        /* \"#utility.yul\":8395:8401   */\n      dup5\n        /* \"#utility.yul\":8389:8393   */\n      dup5\n        /* \"#utility.yul\":8345:8410   */\n      tag_68\n      jump\t// in\n    tag_174:\n        /* \"#utility.yul\":8280:8416   */\n      pop\n        /* \"#utility.yul\":8227:8416   */\n      pop\n      pop\n      jump\t// out\n        /* \"#utility.yul\":8422:8608   */\n    tag_71:\n        /* \"#utility.yul\":8482:8602   */\n    tag_176:\n        /* \"#utility.yul\":8499:8502   */\n      dup2\n        /* \"#utility.yul\":8492:8497   */\n      dup2\n        /* \"#utility.yul\":8489:8503   */\n      lt\n        /* \"#utility.yul\":8482:8602   */\n      iszero\n      tag_178\n      jumpi\n        /* \"#utility.yul\":8553:8592   */\n      tag_179\n        /* \"#utility.yul\":8590:8591   */\n      0x00\n        /* \"#utility.yul\":8583:8588   */\n      dup3\n        /* \"#utility.yul\":8553:8592   */\n      tag_70\n      jump\t// in\n    tag_179:\n        /* \"#utility.yul\":8526:8527   */\n      0x01\n        /* \"#utility.yul\":8519:8524   */\n      dup2\n        /* \"#utility.yul\":8515:8528   */\n      add\n        /* \"#utility.yul\":8506:8528   */\n      swap1\n      pop\n        /* \"#utility.yul\":8482:8602   */\n      jump(tag_176)\n    tag_178:\n        /* \"#utility.yul\":8422:8608   */\n      pop\n      pop\n      jump\t// out\n        /* \"#utility.yul\":8614:9157   */\n    tag_72:\n        /* \"#utility.yul\":8715:8717   */\n      0x1f\n        /* \"#utility.yul\":8710:8713   */\n      dup3\n        /* \"#utility.yul\":8707:8718   */\n      gt\n        /* \"#utility.yul\":8704:9150   */\n      iszero\n      tag_181\n      jumpi\n        /* \"#utility.yul\":8749:8787   */\n      tag_182\n        /* \"#utility.yul\":8781:8786   */\n      dup2\n        /* \"#utility.yul\":8749:8787   */\n      tag_61\n      jump\t// in\n    tag_182:\n        /* \"#utility.yul\":8833:8862   */\n      tag_183\n        /* \"#utility.yul\":8851:8861   */\n      dup5\n        /* \"#utility.yul\":8833:8862   */\n      tag_62\n      jump\t// in\n    tag_183:\n        /* \"#utility.yul\":8823:8831   */\n      dup2\n        /* \"#utility.yul\":8819:8863   */\n      add\n        /* \"#utility.yul\":9016:9018   */\n      0x20\n        /* \"#utility.yul\":9004:9014   */\n      dup6\n        /* \"#utility.yul\":9001:9019   */\n      lt\n        /* \"#utility.yul\":8998:9047   */\n      iszero\n      tag_184\n      jumpi\n        /* \"#utility.yul\":9037:9045   */\n      dup2\n        /* \"#utility.yul\":9022:9045   */\n      swap1\n      pop\n        /* \"#utility.yul\":8998:9047   */\n    tag_184:\n        /* \"#utility.yul\":9060:9140   */\n      tag_185\n        /* \"#utility.yul\":9116:9138   */\n      tag_186\n        /* \"#utility.yul\":9134:9137   */\n      dup6\n        /* \"#utility.yul\":9116:9138   */\n      tag_62\n      jump\t// in\n    tag_186:\n        /* \"#utility.yul\":9106:9114   */\n      dup4\n        /* \"#utility.yul\":9102:9139   */\n      add\n        /* \"#utility.yul\":9089:9100   */\n      dup3\n        /* \"#utility.yul\":9060:9140   */\n      tag_71\n      jump\t// in\n    tag_185:\n        /* \"#utility.yul\":8719:9150   */\n      pop\n      pop\n        /* \"#utility.yul\":8704:9150   */\n    tag_181:\n        /* \"#utility.yul\":8614:9157   */\n      pop\n      pop\n      pop\n      jump\t// out\n        /* \"#utility.yul\":9163:9280   */\n    tag_73:\n        /* \"#utility.yul\":9217:9225   */\n      0x00\n        /* \"#utility.yul\":9267:9272   */\n      dup3\n        /* \"#utility.yul\":9261:9265   */\n      dup3\n        /* \"#utility.yul\":9257:9273   */\n      shr\n        /* \"#utility.yul\":9236:9273   */\n      swap1\n      pop\n        /* \"#utility.yul\":9163:9280   */\n      swap3\n      swap2\n      pop\n      pop\n      jump\t// out\n        /* \"#utility.yul\":9286:9455   */\n    tag_74:\n        /* \"#utility.yul\":9330:9336   */\n      0x00\n        /* \"#utility.yul\":9363:9414   */\n      tag_189\n        /* \"#utility.yul\":9411:9412   */\n      0x00\n        /* \"#utility.yul\":9407:9413   */\n      not\n        /* \"#utility.yul\":9399:9404   */\n      dup5\n        /* \"#utility.yul\":9396:9397   */\n      0x08\n        /* \"#utility.yul\":9392:9405   */\n      mul\n        /* \"#utility.yul\":9363:9414   */\n      tag_73\n      jump\t// in\n    tag_189:\n        /* \"#utility.yul\":9359:9415   */\n      not\n        /* \"#utility.yul\":9444:9448   */\n      dup1\n        /* \"#utility.yul\":9438:9442   */\n      dup4\n        /* \"#utility.yul\":9434:9449   */\n      and\n        /* \"#utility.yul\":9424:9449   */\n      swap2\n      pop\n        /* \"#utility.yul\":9337:9455   */\n      pop\n        /* \"#utility.yul\":9286:9455   */\n      swap3\n      swap2\n      pop\n      pop\n      jump\t// out\n        /* \"#utility.yul\":9460:9755   */\n    tag_75:\n        /* \"#utility.yul\":9536:9540   */\n      0x00\n        /* \"#utility.yul\":9682:9711   */\n      tag_191\n        /* \"#utility.yul\":9707:9710   */\n      dup4\n        /* \"#utility.yul\":9701:9705   */\n      dup4\n        /* \"#utility.yul\":9682:9711   */\n      tag_74\n      jump\t// in\n    tag_191:\n        /* \"#utility.yul\":9674:9711   */\n      swap2\n      pop\n        /* \"#utility.yul\":9744:9747   */\n      dup3\n        /* \"#utility.yul\":9741:9742   */\n      0x02\n        /* \"#utility.yul\":9737:9748   */\n      mul\n        /* \"#utility.yul\":9731:9735   */\n      dup3\n        /* \"#utility.yul\":9728:9749   */\n      or\n        /* \"#utility.yul\":9720:9749   */\n      swap1\n      pop\n        /* \"#utility.yul\":9460:9755   */\n      swap3\n      swap2\n      pop\n      pop\n      jump\t// out\n        /* \"#utility.yul\":9760:11155   */\n    tag_34:\n        /* \"#utility.yul\":9877:9914   */\n      tag_193\n        /* \"#utility.yul\":9910:9913   */\n      dup3\n        /* \"#utility.yul\":9877:9914   */\n      tag_37\n      jump\t// in\n    tag_193:\n        /* \"#utility.yul\":9979:9997   */\n      0xffffffffffffffff\n        /* \"#utility.yul\":9971:9977   */\n      dup2\n        /* \"#utility.yul\":9968:9998   */\n      gt\n        /* \"#utility.yul\":9965:10021   */\n      iszero\n      tag_194\n      jumpi\n        /* \"#utility.yul\":10001:10019   */\n      tag_195\n      tag_51\n      jump\t// in\n    tag_195:\n        /* \"#utility.yul\":9965:10021   */\n    tag_194:\n        /* \"#utility.yul\":10045:10083   */\n      tag_196\n        /* \"#utility.yul\":10077:10081   */\n      dup3\n        /* \"#utility.yul\":10071:10082   */\n      sload\n        /* \"#utility.yul\":10045:10083   */\n      tag_22\n      jump\t// in\n    tag_196:\n        /* \"#utility.yul\":10130:10197   */\n      tag_197\n        /* \"#utility.yul\":10190:10196   */\n      dup3\n        /* \"#utility.yul\":10182:10188   */\n      dup3\n        /* \"#utility.yul\":10176:10180   */\n      dup6\n        /* \"#utility.yul\":10130:10197   */\n      tag_72\n      jump\t// in\n    tag_197:\n        /* \"#utility.yul\":10224:10225   */\n      0x00\n        /* \"#utility.yul\":10248:10252   */\n      0x20\n        /* \"#utility.yul\":10235:10252   */\n      swap1\n      pop\n        /* \"#utility.yul\":10280:10282   */\n      0x1f\n        /* \"#utility.yul\":10272:10278   */\n      dup4\n        /* \"#utility.yul\":10269:10283   */\n      gt\n        /* \"#utility.yul\":10297:10298   */\n      0x01\n        /* \"#utility.yul\":10292:10910   */\n      dup2\n      eq\n      tag_199\n      jumpi\n        /* \"#utility.yul\":10954:10955   */\n      0x00\n        /* \"#utility.yul\":10971:10977   */\n      dup5\n        /* \"#utility.yul\":10968:11045   */\n      iszero\n      tag_200\n      jumpi\n        /* \"#utility.yul\":11020:11029   */\n      dup3\n        /* \"#utility.yul\":11015:11018   */\n      dup8\n        /* \"#utility.yul\":11011:11030   */\n      add\n        /* \"#utility.yul\":11005:11031   */\n      mload\n        /* \"#utility.yul\":10996:11031   */\n      swap1\n      pop\n        /* \"#utility.yul\":10968:11045   */\n    tag_200:\n        /* \"#utility.yul\":11071:11138   */\n      tag_201\n        /* \"#utility.yul\":11131:11137   */\n      dup6\n        /* \"#utility.yul\":11124:11129   */\n      dup3\n        /* \"#utility.yul\":11071:11138   */\n      tag_75\n      jump\t// in\n    tag_201:\n        /* \"#utility.yul\":11065:11069   */\n      dup7\n        /* \"#utility.yul\":11058:11139   */\n      sstore\n        /* \"#utility.yul\":10927:11149   */\n      pop\n        /* \"#utility.yul\":10262:11149   */\n      jump(tag_198)\n        /* \"#utility.yul\":10292:10910   */\n    tag_199:\n        /* \"#utility.yul\":10344:10348   */\n      0x1f\n        /* \"#utility.yul\":10340:10349   */\n      not\n        /* \"#utility.yul\":10332:10338   */\n      dup5\n        /* \"#utility.yul\":10328:10350   */\n      and\n        /* \"#utility.yul\":10378:10415   */\n      tag_202\n        /* \"#utility.yul\":10410:10414   */\n      dup7\n        /* \"#utility.yul\":10378:10415   */\n      tag_61\n      jump\t// in\n    tag_202:\n        /* \"#utility.yul\":10437:10438   */\n      0x00\n        /* \"#utility.yul\":10451:10659   */\n    tag_203:\n        /* \"#utility.yul\":10465:10472   */\n      dup3\n        /* \"#utility.yul\":10462:10463   */\n      dup2\n        /* \"#utility.yul\":10459:10473   */\n      lt\n        /* \"#utility.yul\":10451:10659   */\n      iszero\n      tag_205\n      jumpi\n        /* \"#utility.yul\":10544:10553   */\n      dup5\n        /* \"#utility.yul\":10539:10542   */\n      dup10\n        /* \"#utility.yul\":10535:10554   */\n      add\n        /* \"#utility.yul\":10529:10555   */\n      mload\n        /* \"#utility.yul\":10521:10527   */\n      dup3\n        /* \"#utility.yul\":10514:10556   */\n      sstore\n        /* \"#utility.yul\":10595:10596   */\n      0x01\n        /* \"#utility.yul\":10587:10593   */\n      dup3\n        /* \"#utility.yul\":10583:10597   */\n      add\n        /* \"#utility.yul\":10573:10597   */\n      swap2\n      pop\n        /* \"#utility.yul\":10642:10644   */\n      0x20\n        /* \"#utility.yul\":10631:10640   */\n      dup6\n        /* \"#utility.yul\":10627:10645   */\n      add\n        /* \"#utility.yul\":10614:10645   */\n      swap5\n      pop\n        /* \"#utility.yul\":10488:10492   */\n      0x20\n        /* \"#utility.yul\":10485:10486   */\n      dup2\n        /* \"#utility.yul\":10481:10493   */\n      add\n        /* \"#utility.yul\":10476:10493   */\n      swap1\n      pop\n        /* \"#utility.yul\":10451:10659   */\n      jump(tag_203)\n    tag_205:\n        /* \"#utility.yul\":10687:10693   */\n      dup7\n        /* \"#utility.yul\":10678:10685   */\n      dup4\n        /* \"#utility.yul\":10675:10694   */\n      lt\n        /* \"#utility.yul\":10672:10851   */\n      iszero\n      tag_206\n      jumpi\n        /* \"#utility.yul\":10745:10754   */\n      dup5\n        /* \"#utility.yul\":10740:10743   */\n      dup10\n        /* \"#utility.yul\":10736:10755   */\n      add\n        /* \"#utility.yul\":10730:10756   */\n      mload\n        /* \"#utility.yul\":10788:10836   */\n      tag_207\n        /* \"#utility.yul\":10830:10834   */\n      0x1f\n        /* \"#utility.yul\":10822:10828   */\n      dup10\n        /* \"#utility.yul\":10818:10835   */\n      and\n        /* \"#utility.yul\":10807:10816   */\n      dup3\n        /* \"#utility.yul\":10788:10836   */\n      tag_74\n      jump\t// in\n    tag_207:\n        /* \"#utility.yul\":10780:10786   */\n      dup4\n        /* \"#utility.yul\":10773:10837   */\n      sstore\n        /* \"#utility.yul\":10695:10851   */\n      pop\n        /* \"#utility.yul\":10672:10851   */\n    tag_206:\n        /* \"#utility.yul\":10897:10898   */\n      0x01\n        /* \"#utility.yul\":10893:10894   */\n      0x02\n        /* \"#utility.yul\":10885:10891   */\n      dup9\n        /* \"#utility.yul\":10881:10895   */\n      mul\n        /* \"#utility.yul\":10877:10899   */\n      add\n        /* \"#utility.yul\":10871:10875   */\n      dup9\n        /* \"#utility.yul\":10864:10900   */\n      sstore\n        /* \"#utility.yul\":10299:10910   */\n      pop\n      pop\n      pop\n        /* \"#utility.yul\":10262:11149   */\n    tag_198:\n      pop\n        /* \"#utility.yul\":9852:11155   */\n      pop\n      pop\n      pop\n        /* \"#utility.yul\":9760:11155   */\n      pop\n      pop\n      jump\t// out\n\n    auxdata: 0xa2646970667358221220caee11f6febce3e6461e6037f2df23692a5a8add68a85f8db714e7f74e6ed4c064736f6c63430008160033\n}\n",
				"bytecode": {
					"linkReferences": {},
					"object": "608060405234801561000f575f80fd5b506109058061001d5f395ff3fe608060405234801561000f575f80fd5b506004361061003f575f3560e01c80632096525514610043578063291456ca146100625780637c2da7aa14610093575b5f80fd5b61004b6100af565b604051610059929190610364565b60405180910390f35b61007c600480360381019061007791906103fd565b6101a7565b60405161008a929190610428565b60405180910390f35b6100ad60048036038101906100a891906105ac565b61024c565b005b5f60605f805f3373ffffffffffffffffffffffffffffffffffffffff1673ffffffffffffffffffffffffffffffffffffffff1681526020019081526020015f206040518060400160405290815f8201805461010990610633565b80601f016020809104026020016040519081016040528092919081815260200182805461013590610633565b80156101805780601f1061015757610100808354040283529160200191610180565b820191905f5260205f20905b81548152906001019060200180831161016357829003601f168201915b5050505050815260200160018201548152505090508060200151815f015192509250509091565b5f602052805f5260405f205f91509050805f0180546101c590610633565b80601f01602080910402602001604051908101604052809291908181526020018280546101f190610633565b801561023c5780601f106102135761010080835404028352916020019161023c565b820191905f5260205f20905b81548152906001019060200180831161021f57829003601f168201915b5050505050908060010154905082565b6040518060400160405280838152602001828152505f803373ffffffffffffffffffffffffffffffffffffffff1673ffffffffffffffffffffffffffffffffffffffff1681526020019081526020015f205f820151815f0190816102b09190610800565b50602082015181600101559050505050565b5f819050919050565b6102d4816102c2565b82525050565b5f81519050919050565b5f82825260208201905092915050565b5f5b838110156103115780820151818401526020810190506102f6565b5f8484015250505050565b5f601f19601f8301169050919050565b5f610336826102da565b61034081856102e4565b93506103508185602086016102f4565b6103598161031c565b840191505092915050565b5f6040820190506103775f8301856102cb565b8181036020830152610389818461032c565b90509392505050565b5f604051905090565b5f80fd5b5f80fd5b5f73ffffffffffffffffffffffffffffffffffffffff82169050919050565b5f6103cc826103a3565b9050919050565b6103dc816103c2565b81146103e6575f80fd5b50565b5f813590506103f7816103d3565b92915050565b5f602082840312156104125761041161039b565b5b5f61041f848285016103e9565b91505092915050565b5f6040820190508181035f830152610440818561032c565b905061044f60208301846102cb565b9392505050565b5f80fd5b5f80fd5b7f4e487b71000000000000000000000000000000000000000000000000000000005f52604160045260245ffd5b6104948261031c565b810181811067ffffffffffffffff821117156104b3576104b261045e565b5b80604052505050565b5f6104c5610392565b90506104d1828261048b565b919050565b5f67ffffffffffffffff8211156104f0576104ef61045e565b5b6104f98261031c565b9050602081019050919050565b828183375f83830152505050565b5f610526610521846104d6565b6104bc565b9050828152602081018484840111156105425761054161045a565b5b61054d848285610506565b509392505050565b5f82601f83011261056957610568610456565b5b8135610579848260208601610514565b91505092915050565b61058b816102c2565b8114610595575f80fd5b50565b5f813590506105a681610582565b92915050565b5f80604083850312156105c2576105c161039b565b5b5f83013567ffffffffffffffff8111156105df576105de61039f565b5b6105eb85828601610555565b92505060206105fc85828601610598565b9150509250929050565b7f4e487b71000000000000000000000000000000000000000000000000000000005f52602260045260245ffd5b5f600282049050600182168061064a57607f821691505b60208210810361065d5761065c610606565b5b50919050565b5f819050815f5260205f209050919050565b5f6020601f8301049050919050565b5f82821b905092915050565b5f600883026106bf7fffffffffffffffffffffffffffffffffffffffffffffffffffffffffffffffff82610684565b6106c98683610684565b95508019841693508086168417925050509392505050565b5f819050919050565b5f6107046106ff6106fa846102c2565b6106e1565b6102c2565b9050919050565b5f819050919050565b61071d836106ea565b6107316107298261070b565b848454610690565b825550505050565b5f90565b610745610739565b610750818484610714565b505050565b5b81811015610773576107685f8261073d565b600181019050610756565b5050565b601f8211156107b85761078981610663565b61079284610675565b810160208510156107a1578190505b6107b56107ad85610675565b830182610755565b50505b505050565b5f82821c905092915050565b5f6107d85f19846008026107bd565b1980831691505092915050565b5f6107f083836107c9565b9150826002028217905092915050565b610809826102da565b67ffffffffffffffff8111156108225761082161045e565b5b61082c8254610633565b610837828285610777565b5f60209050601f831160018114610868575f8415610856578287015190505b61086085826107e5565b8655506108c7565b601f19841661087686610663565b5f5b8281101561089d57848901518255600182019150602085019450602081019050610878565b868310156108ba57848901516108b6601f8916826107c9565b8355505b6001600288020188555050505b50505050505056fea2646970667358221220caee11f6febce3e6461e6037f2df23692a5a8add68a85f8db714e7f74e6ed4c064736f6c63430008160033",
					"opcodes": "PUSH1 0x80 PUSH1 0x40 MSTORE CALLVALUE DUP1 ISZERO PUSH2 0xF JUMPI PUSH0 DUP1 REVERT JUMPDEST POP PUSH2 0x905 DUP1 PUSH2 0x1D PUSH0 CODECOPY PUSH0 RETURN INVALID PUSH1 0x80 PUSH1 0x40 MSTORE CALLVALUE DUP1 ISZERO PUSH2 0xF JUMPI PUSH0 DUP1 REVERT JUMPDEST POP PUSH1 0x4 CALLDATASIZE LT PUSH2 0x3F JUMPI PUSH0 CALLDATALOAD PUSH1 0xE0 SHR DUP1 PUSH4 0x20965255 EQ PUSH2 0x43 JUMPI DUP1 PUSH4 0x291456CA EQ PUSH2 0x62 JUMPI DUP1 PUSH4 0x7C2DA7AA EQ PUSH2 0x93 JUMPI JUMPDEST PUSH0 DUP1 REVERT JUMPDEST PUSH2 0x4B PUSH2 0xAF JUMP JUMPDEST PUSH1 0x40 MLOAD PUSH2 0x59 SWAP3 SWAP2 SWAP1 PUSH2 0x364 JUMP JUMPDEST PUSH1 0x40 MLOAD DUP1 SWAP2 SUB SWAP1 RETURN JUMPDEST PUSH2 0x7C PUSH1 0x4 DUP1 CALLDATASIZE SUB DUP2 ADD SWAP1 PUSH2 0x77 SWAP2 SWAP1 PUSH2 0x3FD JUMP JUMPDEST PUSH2 0x1A7 JUMP JUMPDEST PUSH1 0x40 MLOAD PUSH2 0x8A SWAP3 SWAP2 SWAP1 PUSH2 0x428 JUMP JUMPDEST PUSH1 0x40 MLOAD DUP1 SWAP2 SUB SWAP1 RETURN JUMPDEST PUSH2 0xAD PUSH1 0x4 DUP1 CALLDATASIZE SUB DUP2 ADD SWAP1 PUSH2 0xA8 SWAP2 SWAP1 PUSH2 0x5AC JUMP JUMPDEST PUSH2 0x24C JUMP JUMPDEST STOP JUMPDEST PUSH0 PUSH1 0x60 PUSH0 DUP1 PUSH0 CALLER PUSH20 0xFFFFFFFFFFFFFFFFFFFFFFFFFFFFFFFFFFFFFFFF AND PUSH20 0xFFFFFFFFFFFFFFFFFFFFFFFFFFFFFFFFFFFFFFFF AND DUP2 MSTORE PUSH1 0x20 ADD SWAP1 DUP2 MSTORE PUSH1 0x20 ADD PUSH0 KECCAK256 PUSH1 0x40 MLOAD DUP1 PUSH1 0x40 ADD PUSH1 0x40 MSTORE SWAP1 DUP2 PUSH0 DUP3 ADD DUP1 SLOAD PUSH2 0x109 SWAP1 PUSH2 0x633 JUMP JUMPDEST DUP1 PUSH1 0x1F ADD PUSH1 0x20 DUP1 SWAP2 DIV MUL PUSH1 0x20 ADD PUSH1 0x40 MLOAD SWAP1 DUP2 ADD PUSH1 0x40 MSTORE DUP1 SWAP3 SWAP2 SWAP1 DUP2 DUP2 MSTORE PUSH1 0x20 ADD DUP3 DUP1 SLOAD PUSH2 0x135 SWAP1 PUSH2 0x633 JUMP JUMPDEST DUP1 ISZERO PUSH2 0x180 JUMPI DUP1 PUSH1 0x1F LT PUSH2 0x157 JUMPI PUSH2 0x100 DUP1 DUP4 SLOAD DIV MUL DUP4 MSTORE SWAP2 PUSH1 0x20 ADD SWAP2 PUSH2 0x180 JUMP JUMPDEST DUP3 ADD SWAP2 SWAP1 PUSH0 MSTORE PUSH1 0x20 PUSH0 KECCAK256 SWAP1 JUMPDEST DUP2 SLOAD DUP2 MSTORE SWAP1 PUSH1 0x1 ADD SWAP1 PUSH1 0x20 ADD DUP1 DUP4 GT PUSH2 0x163 JUMPI DUP3 SWAP1 SUB PUSH1 0x1F AND DUP3 ADD SWAP2 JUMPDEST POP POP POP POP POP DUP2 MSTORE PUSH1 0x20 ADD PUSH1 0x1 DUP3 ADD SLOAD DUP2 MSTORE POP POP SWAP1 POP DUP1 PUSH1 0x20 ADD MLOAD DUP2 PUSH0 ADD MLOAD SWAP3 POP SWAP3 POP POP SWAP1 SWAP2 JUMP JUMPDEST PUSH0 PUSH1 0x20 MSTORE DUP1 PUSH0 MSTORE PUSH1 0x40 PUSH0 KECCAK256 PUSH0 SWAP2 POP SWAP1 POP DUP1 PUSH0 ADD DUP1 SLOAD PUSH2 0x1C5 SWAP1 PUSH2 0x633 JUMP JUMPDEST DUP1 PUSH1 0x1F ADD PUSH1 0x20 DUP1 SWAP2 DIV MUL PUSH1 0x20 ADD PUSH1 0x40 MLOAD SWAP1 DUP2 ADD PUSH1 0x40 MSTORE DUP1 SWAP3 SWAP2 SWAP1 DUP2 DUP2 MSTORE PUSH1 0x20 ADD DUP3 DUP1 SLOAD PUSH2 0x1F1 SWAP1 PUSH2 0x633 JUMP JUMPDEST DUP1 ISZERO PUSH2 0x23C JUMPI DUP1 PUSH1 0x1F LT PUSH2 0x213 JUMPI PUSH2 0x100 DUP1 DUP4 SLOAD DIV MUL DUP4 MSTORE SWAP2 PUSH1 0x20 ADD SWAP2 PUSH2 0x23C JUMP JUMPDEST DUP3 ADD SWAP2 SWAP1 PUSH0 MSTORE PUSH1 0x20 PUSH0 KECCAK256 SWAP1 JUMPDEST DUP2 SLOAD DUP2 MSTORE SWAP1 PUSH1 0x1 ADD SWAP1 PUSH1 0x20 ADD DUP1 DUP4 GT PUSH2 0x21F JUMPI DUP3 SWAP1 SUB PUSH1 0x1F AND DUP3 ADD SWAP2 JUMPDEST POP POP POP POP POP SWAP1 DUP1 PUSH1 0x1 ADD SLOAD SWAP1 POP DUP3 JUMP JUMPDEST PUSH1 0x40 MLOAD DUP1 PUSH1 0x40 ADD PUSH1 0x40 MSTORE DUP1 DUP4 DUP2 MSTORE PUSH1 0x20 ADD DUP3 DUP2 MSTORE POP PUSH0 DUP1 CALLER PUSH20 0xFFFFFFFFFFFFFFFFFFFFFFFFFFFFFFFFFFFFFFFF AND PUSH20 0xFFFFFFFFFFFFFFFFFFFFFFFFFFFFFFFFFFFFFFFF AND DUP2 MSTORE PUSH1 0x20 ADD SWAP1 DUP2 MSTORE PUSH1 0x20 ADD PUSH0 KECCAK256 PUSH0 DUP3 ADD MLOAD DUP2 PUSH0 ADD SWAP1 DUP2 PUSH2 0x2B0 SWAP2 SWAP1 PUSH2 0x800 JUMP JUMPDEST POP PUSH1 0x20 DUP3 ADD MLOAD DUP2 PUSH1 0x1 ADD SSTORE SWAP1 POP POP POP POP JUMP JUMPDEST PUSH0 DUP2 SWAP1 POP SWAP2 SWAP1 POP JUMP JUMPDEST PUSH2 0x2D4 DUP2 PUSH2 0x2C2 JUMP JUMPDEST DUP3 MSTORE POP POP JUMP JUMPDEST PUSH0 DUP2 MLOAD SWAP1 POP SWAP2 SWAP1 POP JUMP JUMPDEST PUSH0 DUP3 DUP3 MSTORE PUSH1 0x20 DUP3 ADD SWAP1 POP SWAP3 SWAP2 POP POP JUMP JUMPDEST PUSH0 JUMPDEST DUP4 DUP2 LT ISZERO PUSH2 0x311 JUMPI DUP1 DUP3 ADD MLOAD DUP2 DUP5 ADD MSTORE PUSH1 0x20 DUP2 ADD SWAP1 POP PUSH2 0x2F6 JUMP JUMPDEST PUSH0 DUP5 DUP5 ADD MSTORE POP POP POP POP JUMP JUMPDEST PUSH0 PUSH1 0x1F NOT PUSH1 0x1F DUP4 ADD AND SWAP1 POP SWAP2 SWAP1 POP JUMP JUMPDEST PUSH0 PUSH2 0x336 DUP3 PUSH2 0x2DA JUMP JUMPDEST PUSH2 0x340 DUP2 DUP6 PUSH2 0x2E4 JUMP JUMPDEST SWAP4 POP PUSH2 0x350 DUP2 DUP6 PUSH1 0x20 DUP7 ADD PUSH2 0x2F4 JUMP JUMPDEST PUSH2 0x359 DUP2 PUSH2 0x31C JUMP JUMPDEST DUP5 ADD SWAP2 POP POP SWAP3 SWAP2 POP POP JUMP JUMPDEST PUSH0 PUSH1 0x40 DUP3 ADD SWAP1 POP PUSH2 0x377 PUSH0 DUP4 ADD DUP6 PUSH2 0x2CB JUMP JUMPDEST DUP2 DUP2 SUB PUSH1 0x20 DUP4 ADD MSTORE PUSH2 0x389 DUP2 DUP5 PUSH2 0x32C JUMP JUMPDEST SWAP1 POP SWAP4 SWAP3 POP POP POP JUMP JUMPDEST PUSH0 PUSH1 0x40 MLOAD SWAP1 POP SWAP1 JUMP JUMPDEST PUSH0 DUP1 REVERT JUMPDEST PUSH0 DUP1 REVERT JUMPDEST PUSH0 PUSH20 0xFFFFFFFFFFFFFFFFFFFFFFFFFFFFFFFFFFFFFFFF DUP3 AND SWAP1 POP SWAP2 SWAP1 POP JUMP JUMPDEST PUSH0 PUSH2 0x3CC DUP3 PUSH2 0x3A3 JUMP JUMPDEST SWAP1 POP SWAP2 SWAP1 POP JUMP JUMPDEST PUSH2 0x3DC DUP2 PUSH2 0x3C2 JUMP JUMPDEST DUP2 EQ PUSH2 0x3E6 JUMPI PUSH0 DUP1 REVERT JUMPDEST POP JUMP JUMPDEST PUSH0 DUP2 CALLDATALOAD SWAP1 POP PUSH2 0x3F7 DUP2 PUSH2 0x3D3 JUMP JUMPDEST SWAP3 SWAP2 POP POP JUMP JUMPDEST PUSH0 PUSH1 0x20 DUP3 DUP5 SUB SLT ISZERO PUSH2 0x412 JUMPI PUSH2 0x411 PUSH2 0x39B JUMP JUMPDEST JUMPDEST PUSH0 PUSH2 0x41F DUP5 DUP3 DUP6 ADD PUSH2 0x3E9 JUMP JUMPDEST SWAP2 POP POP SWAP3 SWAP2 POP POP JUMP JUMPDEST PUSH0 PUSH1 0x40 DUP3 ADD SWAP1 POP DUP2 DUP2 SUB PUSH0 DUP4 ADD MSTORE PUSH2 0x440 DUP2 DUP6 PUSH2 0x32C JUMP JUMPDEST SWAP1 POP PUSH2 0x44F PUSH1 0x20 DUP4 ADD DUP5 PUSH2 0x2CB JUMP JUMPDEST SWAP4 SWAP3 POP POP POP JUMP JUMPDEST PUSH0 DUP1 REVERT JUMPDEST PUSH0 DUP1 REVERT JUMPDEST PUSH32 0x4E487B7100000000000000000000000000000000000000000000000000000000 PUSH0 MSTORE PUSH1 0x41 PUSH1 0x4 MSTORE PUSH1 0x24 PUSH0 REVERT JUMPDEST PUSH2 0x494 DUP3 PUSH2 0x31C JUMP JUMPDEST DUP2 ADD DUP2 DUP2 LT PUSH8 0xFFFFFFFFFFFFFFFF DUP3 GT OR ISZERO PUSH2 0x4B3 JUMPI PUSH2 0x4B2 PUSH2 0x45E JUMP JUMPDEST JUMPDEST DUP1 PUSH1 0x40 MSTORE POP POP POP JUMP JUMPDEST PUSH0 PUSH2 0x4C5 PUSH2 0x392 JUMP JUMPDEST SWAP1 POP PUSH2 0x4D1 DUP3 DUP3 PUSH2 0x48B JUMP JUMPDEST SWAP2 SWAP1 POP JUMP JUMPDEST PUSH0 PUSH8 0xFFFFFFFFFFFFFFFF DUP3 GT ISZERO PUSH2 0x4F0 JUMPI PUSH2 0x4EF PUSH2 0x45E JUMP JUMPDEST JUMPDEST PUSH2 0x4F9 DUP3 PUSH2 0x31C JUMP JUMPDEST SWAP1 POP PUSH1 0x20 DUP2 ADD SWAP1 POP SWAP2 SWAP1 POP JUMP JUMPDEST DUP3 DUP2 DUP4 CALLDATACOPY PUSH0 DUP4 DUP4 ADD MSTORE POP POP POP JUMP JUMPDEST PUSH0 PUSH2 0x526 PUSH2 0x521 DUP5 PUSH2 0x4D6 JUMP JUMPDEST PUSH2 0x4BC JUMP JUMPDEST SWAP1 POP DUP3 DUP2 MSTORE PUSH1 0x20 DUP2 ADD DUP5 DUP5 DUP5 ADD GT ISZERO PUSH2 0x542 JUMPI PUSH2 0x541 PUSH2 0x45A JUMP JUMPDEST JUMPDEST PUSH2 0x54D DUP5 DUP3 DUP6 PUSH2 0x506 JUMP JUMPDEST POP SWAP4 SWAP3 POP POP POP JUMP JUMPDEST PUSH0 DUP3 PUSH1 0x1F DUP4 ADD SLT PUSH2 0x569 JUMPI PUSH2 0x568 PUSH2 0x456 JUMP JUMPDEST JUMPDEST DUP2 CALLDATALOAD PUSH2 0x579 DUP5 DUP3 PUSH1 0x20 DUP7 ADD PUSH2 0x514 JUMP JUMPDEST SWAP2 POP POP SWAP3 SWAP2 POP POP JUMP JUMPDEST PUSH2 0x58B DUP2 PUSH2 0x2C2 JUMP JUMPDEST DUP2 EQ PUSH2 0x595 JUMPI PUSH0 DUP1 REVERT JUMPDEST POP JUMP JUMPDEST PUSH0 DUP2 CALLDATALOAD SWAP1 POP PUSH2 0x5A6 DUP2 PUSH2 0x582 JUMP JUMPDEST SWAP3 SWAP2 POP POP JUMP JUMPDEST PUSH0 DUP1 PUSH1 0x40 DUP4 DUP6 SUB SLT ISZERO PUSH2 0x5C2 JUMPI PUSH2 0x5C1 PUSH2 0x39B JUMP JUMPDEST JUMPDEST PUSH0 DUP4 ADD CALLDATALOAD PUSH8 0xFFFFFFFFFFFFFFFF DUP2 GT ISZERO PUSH2 0x5DF JUMPI PUSH2 0x5DE PUSH2 0x39F JUMP JUMPDEST JUMPDEST PUSH2 0x5EB DUP6 DUP3 DUP7 ADD PUSH2 0x555 JUMP JUMPDEST SWAP3 POP POP PUSH1 0x20 PUSH2 0x5FC DUP6 DUP3 DUP7 ADD PUSH2 0x598 JUMP JUMPDEST SWAP2 POP POP SWAP3 POP SWAP3 SWAP1 POP JUMP JUMPDEST PUSH32 0x4E487B7100000000000000000000000000000000000000000000000000000000 PUSH0 MSTORE PUSH1 0x22 PUSH1 0x4 MSTORE PUSH1 0x24 PUSH0 REVERT JUMPDEST PUSH0 PUSH1 0x2 DUP3 DIV SWAP1 POP PUSH1 0x1 DUP3 AND DUP1 PUSH2 0x64A JUMPI PUSH1 0x7F DUP3 AND SWAP2 POP JUMPDEST PUSH1 0x20 DUP3 LT DUP2 SUB PUSH2 0x65D JUMPI PUSH2 0x65C PUSH2 0x606 JUMP JUMPDEST JUMPDEST POP SWAP2 SWAP1 POP JUMP JUMPDEST PUSH0 DUP2 SWAP1 POP DUP2 PUSH0 MSTORE PUSH1 0x20 PUSH0 KECCAK256 SWAP1 POP SWAP2 SWAP1 POP JUMP JUMPDEST PUSH0 PUSH1 0x20 PUSH1 0x1F DUP4 ADD DIV SWAP1 POP SWAP2 SWAP1 POP JUMP JUMPDEST PUSH0 DUP3 DUP3 SHL SWAP1 POP SWAP3 SWAP2 POP POP JUMP JUMPDEST PUSH0 PUSH1 0x8 DUP4 MUL PUSH2 0x6BF PUSH32 0xFFFFFFFFFFFFFFFFFFFFFFFFFFFFFFFFFFFFFFFFFFFFFFFFFFFFFFFFFFFFFFFF DUP3 PUSH2 0x684 JUMP JUMPDEST PUSH2 0x6C9 DUP7 DUP4 PUSH2 0x684 JUMP JUMPDEST SWAP6 POP DUP1 NOT DUP5 AND SWAP4 POP DUP1 DUP7 AND DUP5 OR SWAP3 POP POP POP SWAP4 SWAP3 POP POP POP JUMP JUMPDEST PUSH0 DUP2 SWAP1 POP SWAP2 SWAP1 POP JUMP JUMPDEST PUSH0 PUSH2 0x704 PUSH2 0x6FF PUSH2 0x6FA DUP5 PUSH2 0x2C2 JUMP JUMPDEST PUSH2 0x6E1 JUMP JUMPDEST PUSH2 0x2C2 JUMP JUMPDEST SWAP1 POP SWAP2 SWAP1 POP JUMP JUMPDEST PUSH0 DUP2 SWAP1 POP SWAP2 SWAP1 POP JUMP JUMPDEST PUSH2 0x71D DUP4 PUSH2 0x6EA JUMP JUMPDEST PUSH2 0x731 PUSH2 0x729 DUP3 PUSH2 0x70B JUMP JUMPDEST DUP5 DUP5 SLOAD PUSH2 0x690 JUMP JUMPDEST DUP3 SSTORE POP POP POP POP JUMP JUMPDEST PUSH0 SWAP1 JUMP JUMPDEST PUSH2 0x745 PUSH2 0x739 JUMP JUMPDEST PUSH2 0x750 DUP2 DUP5 DUP5 PUSH2 0x714 JUMP JUMPDEST POP POP POP JUMP JUMPDEST JUMPDEST DUP2 DUP2 LT ISZERO PUSH2 0x773 JUMPI PUSH2 0x768 PUSH0 DUP3 PUSH2 0x73D JUMP JUMPDEST PUSH1 0x1 DUP2 ADD SWAP1 POP PUSH2 0x756 JUMP JUMPDEST POP POP JUMP JUMPDEST PUSH1 0x1F DUP3 GT ISZERO PUSH2 0x7B8 JUMPI PUSH2 0x789 DUP2 PUSH2 0x663 JUMP JUMPDEST PUSH2 0x792 DUP5 PUSH2 0x675 JUMP JUMPDEST DUP2 ADD PUSH1 0x20 DUP6 LT ISZERO PUSH2 0x7A1 JUMPI DUP2 SWAP1 POP JUMPDEST PUSH2 0x7B5 PUSH2 0x7AD DUP6 PUSH2 0x675 JUMP JUMPDEST DUP4 ADD DUP3 PUSH2 0x755 JUMP JUMPDEST POP POP JUMPDEST POP POP POP JUMP JUMPDEST PUSH0 DUP3 DUP3 SHR SWAP1 POP SWAP3 SWAP2 POP POP JUMP JUMPDEST PUSH0 PUSH2 0x7D8 PUSH0 NOT DUP5 PUSH1 0x8 MUL PUSH2 0x7BD JUMP JUMPDEST NOT DUP1 DUP4 AND SWAP2 POP POP SWAP3 SWAP2 POP POP JUMP JUMPDEST PUSH0 PUSH2 0x7F0 DUP4 DUP4 PUSH2 0x7C9 JUMP JUMPDEST SWAP2 POP DUP3 PUSH1 0x2 MUL DUP3 OR SWAP1 POP SWAP3 SWAP2 POP POP JUMP JUMPDEST PUSH2 0x809 DUP3 PUSH2 0x2DA JUMP JUMPDEST PUSH8 0xFFFFFFFFFFFFFFFF DUP2 GT ISZERO PUSH2 0x822 JUMPI PUSH2 0x821 PUSH2 0x45E JUMP JUMPDEST JUMPDEST PUSH2 0x82C DUP3 SLOAD PUSH2 0x633 JUMP JUMPDEST PUSH2 0x837 DUP3 DUP3 DUP6 PUSH2 0x777 JUMP JUMPDEST PUSH0 PUSH1 0x20 SWAP1 POP PUSH1 0x1F DUP4 GT PUSH1 0x1 DUP2 EQ PUSH2 0x868 JUMPI PUSH0 DUP5 ISZERO PUSH2 0x856 JUMPI DUP3 DUP8 ADD MLOAD SWAP1 POP JUMPDEST PUSH2 0x860 DUP6 DUP3 PUSH2 0x7E5 JUMP JUMPDEST DUP7 SSTORE POP PUSH2 0x8C7 JUMP JUMPDEST PUSH1 0x1F NOT DUP5 AND PUSH2 0x876 DUP7 PUSH2 0x663 JUMP JUMPDEST PUSH0 JUMPDEST DUP3 DUP2 LT ISZERO PUSH2 0x89D JUMPI DUP5 DUP10 ADD MLOAD DUP3 SSTORE PUSH1 0x1 DUP3 ADD SWAP2 POP PUSH1 0x20 DUP6 ADD SWAP5 POP PUSH1 0x20 DUP2 ADD SWAP1 POP PUSH2 0x878 JUMP JUMPDEST DUP7 DUP4 LT ISZERO PUSH2 0x8BA JUMPI DUP5 DUP10 ADD MLOAD PUSH2 0x8B6 PUSH1 0x1F DUP10 AND DUP3 PUSH2 0x7C9 JUMP JUMPDEST DUP4 SSTORE POP JUMPDEST PUSH1 0x1 PUSH1 0x2 DUP9 MUL ADD DUP9 SSTORE POP POP POP JUMPDEST POP POP POP POP POP POP JUMP INVALID LOG2 PUSH5 0x6970667358 0x22 SLT KECCAK256 0xCA 0xEE GT 0xF6 INVALID 0xBC 0xE3 0xE6 CHAINID 0x1E PUSH1 0x37 CALLCODE 0xDF 0x23 PUSH10 0x2A5A8ADD68A85F8DB714 0xE7 0xF7 0x4E PUSH15 0xD4C064736F6C634300081600330000 "
				},
				"gasEstimates": {
					"creation": {
						"codeDepositCost": "461800",
						"executionCost": "497",
						"totalCost": "462297"
					},
					"external": {
						"Contacts(address)": "infinite",
						"getValue()": "infinite",
						"setValue(string,uint256)": "infinite"
					}
				},
				"methodIdentifiers": {
					"Contacts(address)": "291456ca",
					"getValue()": "20965255",
					"setValue(string,uint256)": "7c2da7aa"
				}
			},
			"storageLayout": {
				"storage": [
					{
						"astId": 11,
						"contract": "contracts/ContactList.sol:Person",
						"label": "Contacts",
						"offset": 0,
						"slot": "0",
						"type": "t_mapping(t_address,t_struct(contList)6_storage)"
					}
				],
				"types": {
					"t_address": {
						"encoding": "inplace",
						"label": "address",
						"numberOfBytes": "20"
					},
					"t_mapping(t_address,t_struct(contList)6_storage)": {
						"encoding": "mapping",
						"key": "t_address",
						"label": "mapping(address => struct Person.contList)",
						"numberOfBytes": "32",
						"value": "t_struct(contList)6_storage"
					},
					"t_string_storage": {
						"encoding": "bytes",
						"label": "string",
						"numberOfBytes": "32"
					},
					"t_struct(contList)6_storage": {
						"encoding": "inplace",
						"label": "struct Person.contList",
						"members": [
							{
								"astId": 3,
								"contract": "contracts/ContactList.sol:Person",
								"label": "name",
								"offset": 0,
								"slot": "0",
								"type": "t_string_storage"
							},
							{
								"astId": 5,
								"contract": "contracts/ContactList.sol:Person",
								"label": "contactNumber",
								"offset": 0,
								"slot": "1",
								"type": "t_uint256"
							}
						],
						"numberOfBytes": "64"
					},
					"t_uint256": {
						"encoding": "inplace",
						"label": "uint256",
						"numberOfBytes": "32"
					}
				}
			},
			"userdoc": {
				"kind": "user",
				"methods": {},
				"version": 1
			}
		}
	}
}