{
	"data": {
		"bytecode": {
			"linkReferences": {},
			"object": "608060405234801562000010575f80fd5b5060405162000e8e38038062000e8e83398181016040528101906200003691906200022d565b815f9081620000469190620004bf565b5080600181905550600160025f6101000a81548160ff0219169083151502179055505050620005a3565b5f604051905090565b5f80fd5b5f80fd5b5f80fd5b5f80fd5b5f601f19601f8301169050919050565b7f4e487b71000000000000000000000000000000000000000000000000000000005f52604160045260245ffd5b620000d18262000089565b810181811067ffffffffffffffff82111715620000f357620000f262000099565b5b80604052505050565b5f6200010762000070565b9050620001158282620000c6565b919050565b5f67ffffffffffffffff82111562000137576200013662000099565b5b620001428262000089565b9050602081019050919050565b5f5b838110156200016e57808201518184015260208101905062000151565b5f8484015250505050565b5f6200018f62000189846200011a565b620000fc565b905082815260208101848484011115620001ae57620001ad62000085565b5b620001bb8482856200014f565b509392505050565b5f82601f830112620001da57620001d962000081565b5b8151620001ec84826020860162000179565b91505092915050565b5f819050919050565b6200020981620001f5565b811462000214575f80fd5b50565b5f815190506200022781620001fe565b92915050565b5f806040838503121562000246576200024562000079565b5b5f83015167ffffffffffffffff8111156200026657620002656200007d565b5b6200027485828601620001c3565b9250506020620002878582860162000217565b9150509250929050565b5f81519050919050565b7f4e487b71000000000000000000000000000000000000000000000000000000005f52602260045260245ffd5b5f6002820490506001821680620002e057607f821691505b602082108103620002f657620002f56200029b565b5b50919050565b5f819050815f5260205f209050919050565b5f6020601f8301049050919050565b5f82821b905092915050565b5f600883026200035a7fffffffffffffffffffffffffffffffffffffffffffffffffffffffffffffffff826200031d565b6200036686836200031d565b95508019841693508086168417925050509392505050565b5f819050919050565b5f620003a7620003a16200039b84620001f5565b6200037e565b620001f5565b9050919050565b5f819050919050565b620003c28362000387565b620003da620003d182620003ae565b84845462000329565b825550505050565b5f90565b620003f0620003e2565b620003fd818484620003b7565b505050565b5b818110156200042457620004185f82620003e6565b60018101905062000403565b5050565b601f82111562000473576200043d81620002fc565b62000448846200030e565b8101602085101562000458578190505b6200047062000467856200030e565b83018262000402565b50505b505050565b5f82821c905092915050565b5f620004955f198460080262000478565b1980831691505092915050565b5f620004af838362000484565b9150826002028217905092915050565b620004ca8262000291565b67ffffffffffffffff811115620004e657620004e562000099565b5b620004f28254620002c8565b620004ff82828562000428565b5f60209050601f83116001811462000535575f841562000520578287015190505b6200052c8582620004a2565b8655506200059b565b601f1984166200054586620002fc565b5f5b828110156200056e5784890151825560018201915060208501945060208101905062000547565b868310156200058e57848901516200058a601f89168262000484565b8355505b6001600288020188555050505b505050505050565b6108dd80620005b15f395ff3fe608060405234801561000f575f80fd5b506004361061007b575f3560e01c8063262a9dff11610059578063262a9dff146100d9578063967e6e65146100f7578063e72a416914610115578063fba7cc79146101315761007b565b806306fdde031461007f57806317d7de7c1461009d57806322f3e2d4146100bb575b5f80fd5b61008761014f565b604051610094919061035d565b60405180910390f35b6100a56101da565b6040516100b2919061035d565b60405180910390f35b6100c3610269565b6040516100d09190610397565b60405180910390f35b6100e161027b565b6040516100ee91906103c8565b60405180910390f35b6100ff610281565b60405161010c91906103c8565b60405180910390f35b61012f600480360381019061012a9190610572565b61028a565b005b6101396102be565b6040516101469190610397565b60405180910390f35b5f805461015b9061060b565b80601f01602080910402602001604051908101604052809291908181526020018280546101879061060b565b80156101d25780601f106101a9576101008083540402835291602001916101d2565b820191905f5260205f20905b8154815290600101906020018083116101b557829003601f168201915b505050505081565b60605f80546101e89061060b565b80601f01602080910402602001604051908101604052809291908181526020018280546102149061060b565b801561025f5780601f106102365761010080835404028352916020019161025f565b820191905f5260205f20905b81548152906001019060200180831161024257829003601f168201915b5050505050905090565b60025f9054906101000a900460ff1681565b60015481565b5f600154905090565b825f908161029891906107d8565b50816001819055508060025f6101000a81548160ff021916908315150217905550505050565b5f60025f9054906101000a900460ff16905090565b5f81519050919050565b5f82825260208201905092915050565b5f5b8381101561030a5780820151818401526020810190506102ef565b5f8484015250505050565b5f601f19601f8301169050919050565b5f61032f826102d3565b61033981856102dd565b93506103498185602086016102ed565b61035281610315565b840191505092915050565b5f6020820190508181035f8301526103758184610325565b905092915050565b5f8115159050919050565b6103918161037d565b82525050565b5f6020820190506103aa5f830184610388565b92915050565b5f819050919050565b6103c2816103b0565b82525050565b5f6020820190506103db5f8301846103b9565b92915050565b5f604051905090565b5f80fd5b5f80fd5b5f80fd5b5f80fd5b7f4e487b71000000000000000000000000000000000000000000000000000000005f52604160045260245ffd5b61043082610315565b810181811067ffffffffffffffff8211171561044f5761044e6103fa565b5b80604052505050565b5f6104616103e1565b905061046d8282610427565b919050565b5f67ffffffffffffffff82111561048c5761048b6103fa565b5b61049582610315565b9050602081019050919050565b828183375f83830152505050565b5f6104c26104bd84610472565b610458565b9050828152602081018484840111156104de576104dd6103f6565b5b6104e98482856104a2565b509392505050565b5f82601f830112610505576105046103f2565b5b81356105158482602086016104b0565b91505092915050565b610527816103b0565b8114610531575f80fd5b50565b5f813590506105428161051e565b92915050565b6105518161037d565b811461055b575f80fd5b50565b5f8135905061056c81610548565b92915050565b5f805f60608486031215610589576105886103ea565b5b5f84013567ffffffffffffffff8111156105a6576105a56103ee565b5b6105b2868287016104f1565b93505060206105c386828701610534565b92505060406105d48682870161055e565b9150509250925092565b7f4e487b71000000000000000000000000000000000000000000000000000000005f52602260045260245ffd5b5f600282049050600182168061062257607f821691505b602082108103610635576106346105de565b5b50919050565b5f819050815f5260205f209050919050565b5f6020601f8301049050919050565b5f82821b905092915050565b5f600883026106977fffffffffffffffffffffffffffffffffffffffffffffffffffffffffffffffff8261065c565b6106a1868361065c565b95508019841693508086168417925050509392505050565b5f819050919050565b5f6106dc6106d76106d2846103b0565b6106b9565b6103b0565b9050919050565b5f819050919050565b6106f5836106c2565b610709610701826106e3565b848454610668565b825550505050565b5f90565b61071d610711565b6107288184846106ec565b505050565b5b8181101561074b576107405f82610715565b60018101905061072e565b5050565b601f821115610790576107618161063b565b61076a8461064d565b81016020851015610779578190505b61078d6107858561064d565b83018261072d565b50505b505050565b5f82821c905092915050565b5f6107b05f1984600802610795565b1980831691505092915050565b5f6107c883836107a1565b9150826002028217905092915050565b6107e1826102d3565b67ffffffffffffffff8111156107fa576107f96103fa565b5b610804825461060b565b61080f82828561074f565b5f60209050601f831160018114610840575f841561082e578287015190505b61083885826107bd565b86555061089f565b601f19841661084e8661063b565b5f5b8281101561087557848901518255600182019150602085019450602081019050610850565b86831015610892578489015161088e601f8916826107a1565b8355505b6001600288020188555050505b50505050505056fea2646970667358221220898e0a35d45ff1979c568a0ea474e5c7bd518895d3ca649ccb57bdd80420afa764736f6c63430008160033",
			"opcodes": "PUSH1 0x80 PUSH1 0x40 MSTORE CALLVALUE DUP1 ISZERO PUSH3 0x10 JUMPI PUSH0 DUP1 REVERT JUMPDEST POP PUSH1 0x40 MLOAD PUSH3 0xE8E CODESIZE SUB DUP1 PUSH3 0xE8E DUP4 CODECOPY DUP2 DUP2 ADD PUSH1 0x40 MSTORE DUP2 ADD SWAP1 PUSH3 0x36 SWAP2 SWAP1 PUSH3 0x22D JUMP JUMPDEST DUP2 PUSH0 SWAP1 DUP2 PUSH3 0x46 SWAP2 SWAP1 PUSH3 0x4BF JUMP JUMPDEST POP DUP1 PUSH1 0x1 DUP2 SWAP1 SSTORE POP PUSH1 0x1 PUSH1 0x2 PUSH0 PUSH2 0x100 EXP DUP2 SLOAD DUP2 PUSH1 0xFF MUL NOT AND SWAP1 DUP4 ISZERO ISZERO MUL OR SWAP1 SSTORE POP POP POP PUSH3 0x5A3 JUMP JUMPDEST PUSH0 PUSH1 0x40 MLOAD SWAP1 POP SWAP1 JUMP JUMPDEST PUSH0 DUP1 REVERT JUMPDEST PUSH0 DUP1 REVERT JUMPDEST PUSH0 DUP1 REVERT JUMPDEST PUSH0 DUP1 REVERT JUMPDEST PUSH0 PUSH1 0x1F NOT PUSH1 0x1F DUP4 ADD AND SWAP1 POP SWAP2 SWAP1 POP JUMP JUMPDEST PUSH32 0x4E487B7100000000000000000000000000000000000000000000000000000000 PUSH0 MSTORE PUSH1 0x41 PUSH1 0x4 MSTORE PUSH1 0x24 PUSH0 REVERT JUMPDEST PUSH3 0xD1 DUP3 PUSH3 0x89 JUMP JUMPDEST DUP2 ADD DUP2 DUP2 LT PUSH8 0xFFFFFFFFFFFFFFFF DUP3 GT OR ISZERO PUSH3 0xF3 JUMPI PUSH3 0xF2 PUSH3 0x99 JUMP JUMPDEST JUMPDEST DUP1 PUSH1 0x40 MSTORE POP POP POP JUMP JUMPDEST PUSH0 PUSH3 0x107 PUSH3 0x70 JUMP JUMPDEST SWAP1 POP PUSH3 0x115 DUP3 DUP3 PUSH3 0xC6 JUMP JUMPDEST SWAP2 SWAP1 POP JUMP JUMPDEST PUSH0 PUSH8 0xFFFFFFFFFFFFFFFF DUP3 GT ISZERO PUSH3 0x137 JUMPI PUSH3 0x136 PUSH3 0x99 JUMP JUMPDEST JUMPDEST PUSH3 0x142 DUP3 PUSH3 0x89 JUMP JUMPDEST SWAP1 POP PUSH1 0x20 DUP2 ADD SWAP1 POP SWAP2 SWAP1 POP JUMP JUMPDEST PUSH0 JUMPDEST DUP4 DUP2 LT ISZERO PUSH3 0x16E JUMPI DUP1 DUP3 ADD MLOAD DUP2 DUP5 ADD MSTORE PUSH1 0x20 DUP2 ADD SWAP1 POP PUSH3 0x151 JUMP JUMPDEST PUSH0 DUP5 DUP5 ADD MSTORE POP POP POP POP JUMP JUMPDEST PUSH0 PUSH3 0x18F PUSH3 0x189 DUP5 PUSH3 0x11A JUMP JUMPDEST PUSH3 0xFC JUMP JUMPDEST SWAP1 POP DUP3 DUP2 MSTORE PUSH1 0x20 DUP2 ADD DUP5 DUP5 DUP5 ADD GT ISZERO PUSH3 0x1AE JUMPI PUSH3 0x1AD PUSH3 0x85 JUMP JUMPDEST JUMPDEST PUSH3 0x1BB DUP5 DUP3 DUP6 PUSH3 0x14F JUMP JUMPDEST POP SWAP4 SWAP3 POP POP POP JUMP JUMPDEST PUSH0 DUP3 PUSH1 0x1F DUP4 ADD SLT PUSH3 0x1DA JUMPI PUSH3 0x1D9 PUSH3 0x81 JUMP JUMPDEST JUMPDEST DUP2 MLOAD PUSH3 0x1EC DUP5 DUP3 PUSH1 0x20 DUP7 ADD PUSH3 0x179 JUMP JUMPDEST SWAP2 POP POP SWAP3 SWAP2 POP POP JUMP JUMPDEST PUSH0 DUP2 SWAP1 POP SWAP2 SWAP1 POP JUMP JUMPDEST PUSH3 0x209 DUP2 PUSH3 0x1F5 JUMP JUMPDEST DUP2 EQ PUSH3 0x214 JUMPI PUSH0 DUP1 REVERT JUMPDEST POP JUMP JUMPDEST PUSH0 DUP2 MLOAD SWAP1 POP PUSH3 0x227 DUP2 PUSH3 0x1FE JUMP JUMPDEST SWAP3 SWAP2 POP POP JUMP JUMPDEST PUSH0 DUP1 PUSH1 0x40 DUP4 DUP6 SUB SLT ISZERO PUSH3 0x246 JUMPI PUSH3 0x245 PUSH3 0x79 JUMP JUMPDEST JUMPDEST PUSH0 DUP4 ADD MLOAD PUSH8 0xFFFFFFFFFFFFFFFF DUP2 GT ISZERO PUSH3 0x266 JUMPI PUSH3 0x265 PUSH3 0x7D JUMP JUMPDEST JUMPDEST PUSH3 0x274 DUP6 DUP3 DUP7 ADD PUSH3 0x1C3 JUMP JUMPDEST SWAP3 POP POP PUSH1 0x20 PUSH3 0x287 DUP6 DUP3 DUP7 ADD PUSH3 0x217 JUMP JUMPDEST SWAP2 POP POP SWAP3 POP SWAP3 SWAP1 POP JUMP JUMPDEST PUSH0 DUP2 MLOAD SWAP1 POP SWAP2 SWAP1 POP JUMP JUMPDEST PUSH32 0x4E487B7100000000000000000000000000000000000000000000000000000000 PUSH0 MSTORE PUSH1 0x22 PUSH1 0x4 MSTORE PUSH1 0x24 PUSH0 REVERT JUMPDEST PUSH0 PUSH1 0x2 DUP3 DIV SWAP1 POP PUSH1 0x1 DUP3 AND DUP1 PUSH3 0x2E0 JUMPI PUSH1 0x7F DUP3 AND SWAP2 POP JUMPDEST PUSH1 0x20 DUP3 LT DUP2 SUB PUSH3 0x2F6 JUMPI PUSH3 0x2F5 PUSH3 0x29B JUMP JUMPDEST JUMPDEST POP SWAP2 SWAP1 POP JUMP JUMPDEST PUSH0 DUP2 SWAP1 POP DUP2 PUSH0 MSTORE PUSH1 0x20 PUSH0 KECCAK256 SWAP1 POP SWAP2 SWAP1 POP JUMP JUMPDEST PUSH0 PUSH1 0x20 PUSH1 0x1F DUP4 ADD DIV SWAP1 POP SWAP2 SWAP1 POP JUMP JUMPDEST PUSH0 DUP3 DUP3 SHL SWAP1 POP SWAP3 SWAP2 POP POP JUMP JUMPDEST PUSH0 PUSH1 0x8 DUP4 MUL PUSH3 0x35A PUSH32 0xFFFFFFFFFFFFFFFFFFFFFFFFFFFFFFFFFFFFFFFFFFFFFFFFFFFFFFFFFFFFFFFF DUP3 PUSH3 0x31D JUMP JUMPDEST PUSH3 0x366 DUP7 DUP4 PUSH3 0x31D JUMP JUMPDEST SWAP6 POP DUP1 NOT DUP5 AND SWAP4 POP DUP1 DUP7 AND DUP5 OR SWAP3 POP POP POP SWAP4 SWAP3 POP POP POP JUMP JUMPDEST PUSH0 DUP2 SWAP1 POP SWAP2 SWAP1 POP JUMP JUMPDEST PUSH0 PUSH3 0x3A7 PUSH3 0x3A1 PUSH3 0x39B DUP5 PUSH3 0x1F5 JUMP JUMPDEST PUSH3 0x37E JUMP JUMPDEST PUSH3 0x1F5 JUMP JUMPDEST SWAP1 POP SWAP2 SWAP1 POP JUMP JUMPDEST PUSH0 DUP2 SWAP1 POP SWAP2 SWAP1 POP JUMP JUMPDEST PUSH3 0x3C2 DUP4 PUSH3 0x387 JUMP JUMPDEST PUSH3 0x3DA PUSH3 0x3D1 DUP3 PUSH3 0x3AE JUMP JUMPDEST DUP5 DUP5 SLOAD PUSH3 0x329 JUMP JUMPDEST DUP3 SSTORE POP POP POP POP JUMP JUMPDEST PUSH0 SWAP1 JUMP JUMPDEST PUSH3 0x3F0 PUSH3 0x3E2 JUMP JUMPDEST PUSH3 0x3FD DUP2 DUP5 DUP5 PUSH3 0x3B7 JUMP JUMPDEST POP POP POP JUMP JUMPDEST JUMPDEST DUP2 DUP2 LT ISZERO PUSH3 0x424 JUMPI PUSH3 0x418 PUSH0 DUP3 PUSH3 0x3E6 JUMP JUMPDEST PUSH1 0x1 DUP2 ADD SWAP1 POP PUSH3 0x403 JUMP JUMPDEST POP POP JUMP JUMPDEST PUSH1 0x1F DUP3 GT ISZERO PUSH3 0x473 JUMPI PUSH3 0x43D DUP2 PUSH3 0x2FC JUMP JUMPDEST PUSH3 0x448 DUP5 PUSH3 0x30E JUMP JUMPDEST DUP2 ADD PUSH1 0x20 DUP6 LT ISZERO PUSH3 0x458 JUMPI DUP2 SWAP1 POP JUMPDEST PUSH3 0x470 PUSH3 0x467 DUP6 PUSH3 0x30E JUMP JUMPDEST DUP4 ADD DUP3 PUSH3 0x402 JUMP JUMPDEST POP POP JUMPDEST POP POP POP JUMP JUMPDEST PUSH0 DUP3 DUP3 SHR SWAP1 POP SWAP3 SWAP2 POP POP JUMP JUMPDEST PUSH0 PUSH3 0x495 PUSH0 NOT DUP5 PUSH1 0x8 MUL PUSH3 0x478 JUMP JUMPDEST NOT DUP1 DUP4 AND SWAP2 POP POP SWAP3 SWAP2 POP POP JUMP JUMPDEST PUSH0 PUSH3 0x4AF DUP4 DUP4 PUSH3 0x484 JUMP JUMPDEST SWAP2 POP DUP3 PUSH1 0x2 MUL DUP3 OR SWAP1 POP SWAP3 SWAP2 POP POP JUMP JUMPDEST PUSH3 0x4CA DUP3 PUSH3 0x291 JUMP JUMPDEST PUSH8 0xFFFFFFFFFFFFFFFF DUP2 GT ISZERO PUSH3 0x4E6 JUMPI PUSH3 0x4E5 PUSH3 0x99 JUMP JUMPDEST JUMPDEST PUSH3 0x4F2 DUP3 SLOAD PUSH3 0x2C8 JUMP JUMPDEST PUSH3 0x4FF DUP3 DUP3 DUP6 PUSH3 0x428 JUMP JUMPDEST PUSH0 PUSH1 0x20 SWAP1 POP PUSH1 0x1F DUP4 GT PUSH1 0x1 DUP2 EQ PUSH3 0x535 JUMPI PUSH0 DUP5 ISZERO PUSH3 0x520 JUMPI DUP3 DUP8 ADD MLOAD SWAP1 POP JUMPDEST PUSH3 0x52C DUP6 DUP3 PUSH3 0x4A2 JUMP JUMPDEST DUP7 SSTORE POP PUSH3 0x59B JUMP JUMPDEST PUSH1 0x1F NOT DUP5 AND PUSH3 0x545 DUP7 PUSH3 0x2FC JUMP JUMPDEST PUSH0 JUMPDEST DUP3 DUP2 LT ISZERO PUSH3 0x56E JUMPI DUP5 DUP10 ADD MLOAD DUP3 SSTORE PUSH1 0x1 DUP3 ADD SWAP2 POP PUSH1 0x20 DUP6 ADD SWAP5 POP PUSH1 0x20 DUP2 ADD SWAP1 POP PUSH3 0x547 JUMP JUMPDEST DUP7 DUP4 LT ISZERO PUSH3 0x58E JUMPI DUP5 DUP10 ADD MLOAD PUSH3 0x58A PUSH1 0x1F DUP10 AND DUP3 PUSH3 0x484 JUMP JUMPDEST DUP4 SSTORE POP JUMPDEST PUSH1 0x1 PUSH1 0x2 DUP9 MUL ADD DUP9 SSTORE POP POP POP JUMPDEST POP POP POP POP POP POP JUMP JUMPDEST PUSH2 0x8DD DUP1 PUSH3 0x5B1 PUSH0 CODECOPY PUSH0 RETURN INVALID PUSH1 0x80 PUSH1 0x40 MSTORE CALLVALUE DUP1 ISZERO PUSH2 0xF JUMPI PUSH0 DUP1 REVERT JUMPDEST POP PUSH1 0x4 CALLDATASIZE LT PUSH2 0x7B JUMPI PUSH0 CALLDATALOAD PUSH1 0xE0 SHR DUP1 PUSH4 0x262A9DFF GT PUSH2 0x59 JUMPI DUP1 PUSH4 0x262A9DFF EQ PUSH2 0xD9 JUMPI DUP1 PUSH4 0x967E6E65 EQ PUSH2 0xF7 JUMPI DUP1 PUSH4 0xE72A4169 EQ PUSH2 0x115 JUMPI DUP1 PUSH4 0xFBA7CC79 EQ PUSH2 0x131 JUMPI PUSH2 0x7B JUMP JUMPDEST DUP1 PUSH4 0x6FDDE03 EQ PUSH2 0x7F JUMPI DUP1 PUSH4 0x17D7DE7C EQ PUSH2 0x9D JUMPI DUP1 PUSH4 0x22F3E2D4 EQ PUSH2 0xBB JUMPI JUMPDEST PUSH0 DUP1 REVERT JUMPDEST PUSH2 0x87 PUSH2 0x14F JUMP JUMPDEST PUSH1 0x40 MLOAD PUSH2 0x94 SWAP2 SWAP1 PUSH2 0x35D JUMP JUMPDEST PUSH1 0x40 MLOAD DUP1 SWAP2 SUB SWAP1 RETURN JUMPDEST PUSH2 0xA5 PUSH2 0x1DA JUMP JUMPDEST PUSH1 0x40 MLOAD PUSH2 0xB2 SWAP2 SWAP1 PUSH2 0x35D JUMP JUMPDEST PUSH1 0x40 MLOAD DUP1 SWAP2 SUB SWAP1 RETURN JUMPDEST PUSH2 0xC3 PUSH2 0x269 JUMP JUMPDEST PUSH1 0x40 MLOAD PUSH2 0xD0 SWAP2 SWAP1 PUSH2 0x397 JUMP JUMPDEST PUSH1 0x40 MLOAD DUP1 SWAP2 SUB SWAP1 RETURN JUMPDEST PUSH2 0xE1 PUSH2 0x27B JUMP JUMPDEST PUSH1 0x40 MLOAD PUSH2 0xEE SWAP2 SWAP1 PUSH2 0x3C8 JUMP JUMPDEST PUSH1 0x40 MLOAD DUP1 SWAP2 SUB SWAP1 RETURN JUMPDEST PUSH2 0xFF PUSH2 0x281 JUMP JUMPDEST PUSH1 0x40 MLOAD PUSH2 0x10C SWAP2 SWAP1 PUSH2 0x3C8 JUMP JUMPDEST PUSH1 0x40 MLOAD DUP1 SWAP2 SUB SWAP1 RETURN JUMPDEST PUSH2 0x12F PUSH1 0x4 DUP1 CALLDATASIZE SUB DUP2 ADD SWAP1 PUSH2 0x12A SWAP2 SWAP1 PUSH2 0x572 JUMP JUMPDEST PUSH2 0x28A JUMP JUMPDEST STOP JUMPDEST PUSH2 0x139 PUSH2 0x2BE JUMP JUMPDEST PUSH1 0x40 MLOAD PUSH2 0x146 SWAP2 SWAP1 PUSH2 0x397 JUMP JUMPDEST PUSH1 0x40 MLOAD DUP1 SWAP2 SUB SWAP1 RETURN JUMPDEST PUSH0 DUP1 SLOAD PUSH2 0x15B SWAP1 PUSH2 0x60B JUMP JUMPDEST DUP1 PUSH1 0x1F ADD PUSH1 0x20 DUP1 SWAP2 DIV MUL PUSH1 0x20 ADD PUSH1 0x40 MLOAD SWAP1 DUP2 ADD PUSH1 0x40 MSTORE DUP1 SWAP3 SWAP2 SWAP1 DUP2 DUP2 MSTORE PUSH1 0x20 ADD DUP3 DUP1 SLOAD PUSH2 0x187 SWAP1 PUSH2 0x60B JUMP JUMPDEST DUP1 ISZERO PUSH2 0x1D2 JUMPI DUP1 PUSH1 0x1F LT PUSH2 0x1A9 JUMPI PUSH2 0x100 DUP1 DUP4 SLOAD DIV MUL DUP4 MSTORE SWAP2 PUSH1 0x20 ADD SWAP2 PUSH2 0x1D2 JUMP JUMPDEST DUP3 ADD SWAP2 SWAP1 PUSH0 MSTORE PUSH1 0x20 PUSH0 KECCAK256 SWAP1 JUMPDEST DUP2 SLOAD DUP2 MSTORE SWAP1 PUSH1 0x1 ADD SWAP1 PUSH1 0x20 ADD DUP1 DUP4 GT PUSH2 0x1B5 JUMPI DUP3 SWAP1 SUB PUSH1 0x1F AND DUP3 ADD SWAP2 JUMPDEST POP POP POP POP POP DUP2 JUMP JUMPDEST PUSH1 0x60 PUSH0 DUP1 SLOAD PUSH2 0x1E8 SWAP1 PUSH2 0x60B JUMP JUMPDEST DUP1 PUSH1 0x1F ADD PUSH1 0x20 DUP1 SWAP2 DIV MUL PUSH1 0x20 ADD PUSH1 0x40 MLOAD SWAP1 DUP2 ADD PUSH1 0x40 MSTORE DUP1 SWAP3 SWAP2 SWAP1 DUP2 DUP2 MSTORE PUSH1 0x20 ADD DUP3 DUP1 SLOAD PUSH2 0x214 SWAP1 PUSH2 0x60B JUMP JUMPDEST DUP1 ISZERO PUSH2 0x25F JUMPI DUP1 PUSH1 0x1F LT PUSH2 0x236 JUMPI PUSH2 0x100 DUP1 DUP4 SLOAD DIV MUL DUP4 MSTORE SWAP2 PUSH1 0x20 ADD SWAP2 PUSH2 0x25F JUMP JUMPDEST DUP3 ADD SWAP2 SWAP1 PUSH0 MSTORE PUSH1 0x20 PUSH0 KECCAK256 SWAP1 JUMPDEST DUP2 SLOAD DUP2 MSTORE SWAP1 PUSH1 0x1 ADD SWAP1 PUSH1 0x20 ADD DUP1 DUP4 GT PUSH2 0x242 JUMPI DUP3 SWAP1 SUB PUSH1 0x1F AND DUP3 ADD SWAP2 JUMPDEST POP POP POP POP POP SWAP1 POP SWAP1 JUMP JUMPDEST PUSH1 0x2 PUSH0 SWAP1 SLOAD SWAP1 PUSH2 0x100 EXP SWAP1 DIV PUSH1 0xFF AND DUP2 JUMP JUMPDEST PUSH1 0x1 SLOAD DUP2 JUMP JUMPDEST PUSH0 PUSH1 0x1 SLOAD SWAP1 POP SWAP1 JUMP JUMPDEST DUP3 PUSH0 SWAP1 DUP2 PUSH2 0x298 SWAP2 SWAP1 PUSH2 0x7D8 JUMP JUMPDEST POP DUP2 PUSH1 0x1 DUP2 SWAP1 SSTORE POP DUP1 PUSH1 0x2 PUSH0 PUSH2 0x100 EXP DUP2 SLOAD DUP2 PUSH1 0xFF MUL NOT AND SWAP1 DUP4 ISZERO ISZERO MUL OR SWAP1 SSTORE POP POP POP POP JUMP JUMPDEST PUSH0 PUSH1 0x2 PUSH0 SWAP1 SLOAD SWAP1 PUSH2 0x100 EXP SWAP1 DIV PUSH1 0xFF AND SWAP1 POP SWAP1 JUMP JUMPDEST PUSH0 DUP2 MLOAD SWAP1 POP SWAP2 SWAP1 POP JUMP JUMPDEST PUSH0 DUP3 DUP3 MSTORE PUSH1 0x20 DUP3 ADD SWAP1 POP SWAP3 SWAP2 POP POP JUMP JUMPDEST PUSH0 JUMPDEST DUP4 DUP2 LT ISZERO PUSH2 0x30A JUMPI DUP1 DUP3 ADD MLOAD DUP2 DUP5 ADD MSTORE PUSH1 0x20 DUP2 ADD SWAP1 POP PUSH2 0x2EF JUMP JUMPDEST PUSH0 DUP5 DUP5 ADD MSTORE POP POP POP POP JUMP JUMPDEST PUSH0 PUSH1 0x1F NOT PUSH1 0x1F DUP4 ADD AND SWAP1 POP SWAP2 SWAP1 POP JUMP JUMPDEST PUSH0 PUSH2 0x32F DUP3 PUSH2 0x2D3 JUMP JUMPDEST PUSH2 0x339 DUP2 DUP6 PUSH2 0x2DD JUMP JUMPDEST SWAP4 POP PUSH2 0x349 DUP2 DUP6 PUSH1 0x20 DUP7 ADD PUSH2 0x2ED JUMP JUMPDEST PUSH2 0x352 DUP2 PUSH2 0x315 JUMP JUMPDEST DUP5 ADD SWAP2 POP POP SWAP3 SWAP2 POP POP JUMP JUMPDEST PUSH0 PUSH1 0x20 DUP3 ADD SWAP1 POP DUP2 DUP2 SUB PUSH0 DUP4 ADD MSTORE PUSH2 0x375 DUP2 DUP5 PUSH2 0x325 JUMP JUMPDEST SWAP1 POP SWAP3 SWAP2 POP POP JUMP JUMPDEST PUSH0 DUP2 ISZERO ISZERO SWAP1 POP SWAP2 SWAP1 POP JUMP JUMPDEST PUSH2 0x391 DUP2 PUSH2 0x37D JUMP JUMPDEST DUP3 MSTORE POP POP JUMP JUMPDEST PUSH0 PUSH1 0x20 DUP3 ADD SWAP1 POP PUSH2 0x3AA PUSH0 DUP4 ADD DUP5 PUSH2 0x388 JUMP JUMPDEST SWAP3 SWAP2 POP POP JUMP JUMPDEST PUSH0 DUP2 SWAP1 POP SWAP2 SWAP1 POP JUMP JUMPDEST PUSH2 0x3C2 DUP2 PUSH2 0x3B0 JUMP JUMPDEST DUP3 MSTORE POP POP JUMP JUMPDEST PUSH0 PUSH1 0x20 DUP3 ADD SWAP1 POP PUSH2 0x3DB PUSH0 DUP4 ADD DUP5 PUSH2 0x3B9 JUMP JUMPDEST SWAP3 SWAP2 POP POP JUMP JUMPDEST PUSH0 PUSH1 0x40 MLOAD SWAP1 POP SWAP1 JUMP JUMPDEST PUSH0 DUP1 REVERT JUMPDEST PUSH0 DUP1 REVERT JUMPDEST PUSH0 DUP1 REVERT JUMPDEST PUSH0 DUP1 REVERT JUMPDEST PUSH32 0x4E487B7100000000000000000000000000000000000000000000000000000000 PUSH0 MSTORE PUSH1 0x41 PUSH1 0x4 MSTORE PUSH1 0x24 PUSH0 REVERT JUMPDEST PUSH2 0x430 DUP3 PUSH2 0x315 JUMP JUMPDEST DUP2 ADD DUP2 DUP2 LT PUSH8 0xFFFFFFFFFFFFFFFF DUP3 GT OR ISZERO PUSH2 0x44F JUMPI PUSH2 0x44E PUSH2 0x3FA JUMP JUMPDEST JUMPDEST DUP1 PUSH1 0x40 MSTORE POP POP POP JUMP JUMPDEST PUSH0 PUSH2 0x461 PUSH2 0x3E1 JUMP JUMPDEST SWAP1 POP PUSH2 0x46D DUP3 DUP3 PUSH2 0x427 JUMP JUMPDEST SWAP2 SWAP1 POP JUMP JUMPDEST PUSH0 PUSH8 0xFFFFFFFFFFFFFFFF DUP3 GT ISZERO PUSH2 0x48C JUMPI PUSH2 0x48B PUSH2 0x3FA JUMP JUMPDEST JUMPDEST PUSH2 0x495 DUP3 PUSH2 0x315 JUMP JUMPDEST SWAP1 POP PUSH1 0x20 DUP2 ADD SWAP1 POP SWAP2 SWAP1 POP JUMP JUMPDEST DUP3 DUP2 DUP4 CALLDATACOPY PUSH0 DUP4 DUP4 ADD MSTORE POP POP POP JUMP JUMPDEST PUSH0 PUSH2 0x4C2 PUSH2 0x4BD DUP5 PUSH2 0x472 JUMP JUMPDEST PUSH2 0x458 JUMP JUMPDEST SWAP1 POP DUP3 DUP2 MSTORE PUSH1 0x20 DUP2 ADD DUP5 DUP5 DUP5 ADD GT ISZERO PUSH2 0x4DE JUMPI PUSH2 0x4DD PUSH2 0x3F6 JUMP JUMPDEST JUMPDEST PUSH2 0x4E9 DUP5 DUP3 DUP6 PUSH2 0x4A2 JUMP JUMPDEST POP SWAP4 SWAP3 POP POP POP JUMP JUMPDEST PUSH0 DUP3 PUSH1 0x1F DUP4 ADD SLT PUSH2 0x505 JUMPI PUSH2 0x504 PUSH2 0x3F2 JUMP JUMPDEST JUMPDEST DUP2 CALLDATALOAD PUSH2 0x515 DUP5 DUP3 PUSH1 0x20 DUP7 ADD PUSH2 0x4B0 JUMP JUMPDEST SWAP2 POP POP SWAP3 SWAP2 POP POP JUMP JUMPDEST PUSH2 0x527 DUP2 PUSH2 0x3B0 JUMP JUMPDEST DUP2 EQ PUSH2 0x531 JUMPI PUSH0 DUP1 REVERT JUMPDEST POP JUMP JUMPDEST PUSH0 DUP2 CALLDATALOAD SWAP1 POP PUSH2 0x542 DUP2 PUSH2 0x51E JUMP JUMPDEST SWAP3 SWAP2 POP POP JUMP JUMPDEST PUSH2 0x551 DUP2 PUSH2 0x37D JUMP JUMPDEST DUP2 EQ PUSH2 0x55B JUMPI PUSH0 DUP1 REVERT JUMPDEST POP JUMP JUMPDEST PUSH0 DUP2 CALLDATALOAD SWAP1 POP PUSH2 0x56C DUP2 PUSH2 0x548 JUMP JUMPDEST SWAP3 SWAP2 POP POP JUMP JUMPDEST PUSH0 DUP1 PUSH0 PUSH1 0x60 DUP5 DUP7 SUB SLT ISZERO PUSH2 0x589 JUMPI PUSH2 0x588 PUSH2 0x3EA JUMP JUMPDEST JUMPDEST PUSH0 DUP5 ADD CALLDATALOAD PUSH8 0xFFFFFFFFFFFFFFFF DUP2 GT ISZERO PUSH2 0x5A6 JUMPI PUSH2 0x5A5 PUSH2 0x3EE JUMP JUMPDEST JUMPDEST PUSH2 0x5B2 DUP7 DUP3 DUP8 ADD PUSH2 0x4F1 JUMP JUMPDEST SWAP4 POP POP PUSH1 0x20 PUSH2 0x5C3 DUP7 DUP3 DUP8 ADD PUSH2 0x534 JUMP JUMPDEST SWAP3 POP POP PUSH1 0x40 PUSH2 0x5D4 DUP7 DUP3 DUP8 ADD PUSH2 0x55E JUMP JUMPDEST SWAP2 POP POP SWAP3 POP SWAP3 POP SWAP3 JUMP JUMPDEST PUSH32 0x4E487B7100000000000000000000000000000000000000000000000000000000 PUSH0 MSTORE PUSH1 0x22 PUSH1 0x4 MSTORE PUSH1 0x24 PUSH0 REVERT JUMPDEST PUSH0 PUSH1 0x2 DUP3 DIV SWAP1 POP PUSH1 0x1 DUP3 AND DUP1 PUSH2 0x622 JUMPI PUSH1 0x7F DUP3 AND SWAP2 POP JUMPDEST PUSH1 0x20 DUP3 LT DUP2 SUB PUSH2 0x635 JUMPI PUSH2 0x634 PUSH2 0x5DE JUMP JUMPDEST JUMPDEST POP SWAP2 SWAP1 POP JUMP JUMPDEST PUSH0 DUP2 SWAP1 POP DUP2 PUSH0 MSTORE PUSH1 0x20 PUSH0 KECCAK256 SWAP1 POP SWAP2 SWAP1 POP JUMP JUMPDEST PUSH0 PUSH1 0x20 PUSH1 0x1F DUP4 ADD DIV SWAP1 POP SWAP2 SWAP1 POP JUMP JUMPDEST PUSH0 DUP3 DUP3 SHL SWAP1 POP SWAP3 SWAP2 POP POP JUMP JUMPDEST PUSH0 PUSH1 0x8 DUP4 MUL PUSH2 0x697 PUSH32 0xFFFFFFFFFFFFFFFFFFFFFFFFFFFFFFFFFFFFFFFFFFFFFFFFFFFFFFFFFFFFFFFF DUP3 PUSH2 0x65C JUMP JUMPDEST PUSH2 0x6A1 DUP7 DUP4 PUSH2 0x65C JUMP JUMPDEST SWAP6 POP DUP1 NOT DUP5 AND SWAP4 POP DUP1 DUP7 AND DUP5 OR SWAP3 POP POP POP SWAP4 SWAP3 POP POP POP JUMP JUMPDEST PUSH0 DUP2 SWAP1 POP SWAP2 SWAP1 POP JUMP JUMPDEST PUSH0 PUSH2 0x6DC PUSH2 0x6D7 PUSH2 0x6D2 DUP5 PUSH2 0x3B0 JUMP JUMPDEST PUSH2 0x6B9 JUMP JUMPDEST PUSH2 0x3B0 JUMP JUMPDEST SWAP1 POP SWAP2 SWAP1 POP JUMP JUMPDEST PUSH0 DUP2 SWAP1 POP SWAP2 SWAP1 POP JUMP JUMPDEST PUSH2 0x6F5 DUP4 PUSH2 0x6C2 JUMP JUMPDEST PUSH2 0x709 PUSH2 0x701 DUP3 PUSH2 0x6E3 JUMP JUMPDEST DUP5 DUP5 SLOAD PUSH2 0x668 JUMP JUMPDEST DUP3 SSTORE POP POP POP POP JUMP JUMPDEST PUSH0 SWAP1 JUMP JUMPDEST PUSH2 0x71D PUSH2 0x711 JUMP JUMPDEST PUSH2 0x728 DUP2 DUP5 DUP5 PUSH2 0x6EC JUMP JUMPDEST POP POP POP JUMP JUMPDEST JUMPDEST DUP2 DUP2 LT ISZERO PUSH2 0x74B JUMPI PUSH2 0x740 PUSH0 DUP3 PUSH2 0x715 JUMP JUMPDEST PUSH1 0x1 DUP2 ADD SWAP1 POP PUSH2 0x72E JUMP JUMPDEST POP POP JUMP JUMPDEST PUSH1 0x1F DUP3 GT ISZERO PUSH2 0x790 JUMPI PUSH2 0x761 DUP2 PUSH2 0x63B JUMP JUMPDEST PUSH2 0x76A DUP5 PUSH2 0x64D JUMP JUMPDEST DUP2 ADD PUSH1 0x20 DUP6 LT ISZERO PUSH2 0x779 JUMPI DUP2 SWAP1 POP JUMPDEST PUSH2 0x78D PUSH2 0x785 DUP6 PUSH2 0x64D JUMP JUMPDEST DUP4 ADD DUP3 PUSH2 0x72D JUMP JUMPDEST POP POP JUMPDEST POP POP POP JUMP JUMPDEST PUSH0 DUP3 DUP3 SHR SWAP1 POP SWAP3 SWAP2 POP POP JUMP JUMPDEST PUSH0 PUSH2 0x7B0 PUSH0 NOT DUP5 PUSH1 0x8 MUL PUSH2 0x795 JUMP JUMPDEST NOT DUP1 DUP4 AND SWAP2 POP POP SWAP3 SWAP2 POP POP JUMP JUMPDEST PUSH0 PUSH2 0x7C8 DUP4 DUP4 PUSH2 0x7A1 JUMP JUMPDEST SWAP2 POP DUP3 PUSH1 0x2 MUL DUP3 OR SWAP1 POP SWAP3 SWAP2 POP POP JUMP JUMPDEST PUSH2 0x7E1 DUP3 PUSH2 0x2D3 JUMP JUMPDEST PUSH8 0xFFFFFFFFFFFFFFFF DUP2 GT ISZERO PUSH2 0x7FA JUMPI PUSH2 0x7F9 PUSH2 0x3FA JUMP JUMPDEST JUMPDEST PUSH2 0x804 DUP3 SLOAD PUSH2 0x60B JUMP JUMPDEST PUSH2 0x80F DUP3 DUP3 DUP6 PUSH2 0x74F JUMP JUMPDEST PUSH0 PUSH1 0x20 SWAP1 POP PUSH1 0x1F DUP4 GT PUSH1 0x1 DUP2 EQ PUSH2 0x840 JUMPI PUSH0 DUP5 ISZERO PUSH2 0x82E JUMPI DUP3 DUP8 ADD MLOAD SWAP1 POP JUMPDEST PUSH2 0x838 DUP6 DUP3 PUSH2 0x7BD JUMP JUMPDEST DUP7 SSTORE POP PUSH2 0x89F JUMP JUMPDEST PUSH1 0x1F NOT DUP5 AND PUSH2 0x84E DUP7 PUSH2 0x63B JUMP JUMPDEST PUSH0 JUMPDEST DUP3 DUP2 LT ISZERO PUSH2 0x875 JUMPI DUP5 DUP10 ADD MLOAD DUP3 SSTORE PUSH1 0x1 DUP3 ADD SWAP2 POP PUSH1 0x20 DUP6 ADD SWAP5 POP PUSH1 0x20 DUP2 ADD SWAP1 POP PUSH2 0x850 JUMP JUMPDEST DUP7 DUP4 LT ISZERO PUSH2 0x892 JUMPI DUP5 DUP10 ADD MLOAD PUSH2 0x88E PUSH1 0x1F DUP10 AND DUP3 PUSH2 0x7A1 JUMP JUMPDEST DUP4 SSTORE POP JUMPDEST PUSH1 0x1 PUSH1 0x2 DUP9 MUL ADD DUP9 SSTORE POP POP POP JUMPDEST POP POP POP POP POP POP JUMP INVALID LOG2 PUSH5 0x6970667358 0x22 SLT KECCAK256 DUP10 DUP15 EXP CALLDATALOAD 0xD4 PUSH0 CALL SWAP8 SWAP13 JUMP DUP11 0xE LOG4 PUSH21 0xE5C7BD518895D3CA649CCB57BDD80420AFA764736F PUSH13 0x63430008160033000000000000 "
		},
		"gasEstimates": {
			"creation": {
				"codeDepositCost": "453800",
				"executionCost": "infinite",
				"totalCost": "infinite"
			},
			"external": {
				"age()": "2425",
				"getAge()": "2454",
				"getIsActive()": "2539",
				"getName()": "infinite",
				"isActive()": "2511",
				"name()": "infinite",
				"updatePerson(string,uint256,bool)": "infinite"
			}
		},
		"methodIdentifiers": {
			"age()": "262a9dff",
			"getAge()": "967e6e65",
			"getIsActive()": "fba7cc79",
			"getName()": "17d7de7c",
			"isActive()": "22f3e2d4",
			"name()": "06fdde03",
			"updatePerson(string,uint256,bool)": "e72a4169"
		}
	},
	"abi": [
		{
			"inputs": [
				{
					"internalType": "string",
					"name": "_name",
					"type": "string"
				},
				{
					"internalType": "uint256",
					"name": "_age",
					"type": "uint256"
				}
			],
			"stateMutability": "nonpayable",
			"type": "constructor"
		},
		{
			"inputs": [],
			"name": "age",
			"outputs": [
				{
					"internalType": "uint256",
					"name": "",
					"type": "uint256"
				}
			],
			"stateMutability": "view",
			"type": "function"
		},
		{
			"inputs": [],
			"name": "getAge",
			"outputs": [
				{
					"internalType": "uint256",
					"name": "",
					"type": "uint256"
				}
			],
			"stateMutability": "view",
			"type": "function"
		},
		{
			"inputs": [],
			"name": "getIsActive",
			"outputs": [
				{
					"internalType": "bool",
					"name": "",
					"type": "bool"
				}
			],
			"stateMutability": "view",
			"type": "function"
		},
		{
			"inputs": [],
			"name": "getName",
			"outputs": [
				{
					"internalType": "string",
					"name": "",
					"type": "string"
				}
			],
			"stateMutability": "view",
			"type": "function"
		},
		{
			"inputs": [],
			"name": "isActive",
			"outputs": [
				{
					"internalType": "bool",
					"name": "",
					"type": "bool"
				}
			],
			"stateMutability": "view",
			"type": "function"
		},
		{
			"inputs": [],
			"name": "name",
			"outputs": [
				{
					"internalType": "string",
					"name": "",
					"type": "string"
				}
			],
			"stateMutability": "view",
			"type": "function"
		},
		{
			"inputs": [
				{
					"internalType": "string",
					"name": "_name",
					"type": "string"
				},
				{
					"internalType": "uint256",
					"name": "_age",
					"type": "uint256"
				},
				{
					"internalType": "bool",
					"name": "_isActive",
					"type": "bool"
				}
			],
			"name": "updatePerson",
			"outputs": [],
			"stateMutability": "nonpayable",
			"type": "function"
		}
	]
}